{
  "_format": "hh-sol-artifact-1",
  "contractName": "ERC1155MinterSupplyCap",
  "sourceName": "contracts/V3/token/ERC1155MinterSupplyCap.sol",
  "abi": [
    {
      "inputs": [
        {
          "internalType": "string",
          "name": "uri",
          "type": "string"
        },
        {
          "internalType": "address",
          "name": "minterAddress",
          "type": "address"
        }
      ],
      "stateMutability": "nonpayable",
      "type": "constructor"
    },
    {
      "anonymous": false,
      "inputs": [
        {
          "indexed": true,
          "internalType": "address",
          "name": "account",
          "type": "address"
        },
        {
          "indexed": true,
          "internalType": "address",
          "name": "operator",
          "type": "address"
        },
        {
          "indexed": false,
          "internalType": "bool",
          "name": "approved",
          "type": "bool"
        }
      ],
      "name": "ApprovalForAll",
      "type": "event"
    },
    {
      "anonymous": false,
      "inputs": [
        {
          "indexed": true,
          "internalType": "bytes32",
          "name": "role",
          "type": "bytes32"
        },
        {
          "indexed": true,
          "internalType": "bytes32",
          "name": "previousAdminRole",
          "type": "bytes32"
        },
        {
          "indexed": true,
          "internalType": "bytes32",
          "name": "newAdminRole",
          "type": "bytes32"
        }
      ],
      "name": "RoleAdminChanged",
      "type": "event"
    },
    {
      "anonymous": false,
      "inputs": [
        {
          "indexed": true,
          "internalType": "bytes32",
          "name": "role",
          "type": "bytes32"
        },
        {
          "indexed": true,
          "internalType": "address",
          "name": "account",
          "type": "address"
        },
        {
          "indexed": true,
          "internalType": "address",
          "name": "sender",
          "type": "address"
        }
      ],
      "name": "RoleGranted",
      "type": "event"
    },
    {
      "anonymous": false,
      "inputs": [
        {
          "indexed": true,
          "internalType": "bytes32",
          "name": "role",
          "type": "bytes32"
        },
        {
          "indexed": true,
          "internalType": "address",
          "name": "account",
          "type": "address"
        },
        {
          "indexed": true,
          "internalType": "address",
          "name": "sender",
          "type": "address"
        }
      ],
      "name": "RoleRevoked",
      "type": "event"
    },
    {
      "anonymous": false,
      "inputs": [
        {
          "indexed": true,
          "internalType": "address",
          "name": "operator",
          "type": "address"
        },
        {
          "indexed": true,
          "internalType": "address",
          "name": "from",
          "type": "address"
        },
        {
          "indexed": true,
          "internalType": "address",
          "name": "to",
          "type": "address"
        },
        {
          "indexed": false,
          "internalType": "uint256[]",
          "name": "ids",
          "type": "uint256[]"
        },
        {
          "indexed": false,
          "internalType": "uint256[]",
          "name": "values",
          "type": "uint256[]"
        }
      ],
      "name": "TransferBatch",
      "type": "event"
    },
    {
      "anonymous": false,
      "inputs": [
        {
          "indexed": true,
          "internalType": "address",
          "name": "operator",
          "type": "address"
        },
        {
          "indexed": true,
          "internalType": "address",
          "name": "from",
          "type": "address"
        },
        {
          "indexed": true,
          "internalType": "address",
          "name": "to",
          "type": "address"
        },
        {
          "indexed": false,
          "internalType": "uint256",
          "name": "id",
          "type": "uint256"
        },
        {
          "indexed": false,
          "internalType": "uint256",
          "name": "value",
          "type": "uint256"
        }
      ],
      "name": "TransferSingle",
      "type": "event"
    },
    {
      "anonymous": false,
      "inputs": [
        {
          "indexed": false,
          "internalType": "string",
          "name": "value",
          "type": "string"
        },
        {
          "indexed": true,
          "internalType": "uint256",
          "name": "id",
          "type": "uint256"
        }
      ],
      "name": "URI",
      "type": "event"
    },
    {
      "inputs": [],
      "name": "DEFAULT_ADMIN_ROLE",
      "outputs": [
        {
          "internalType": "bytes32",
          "name": "",
          "type": "bytes32"
        }
      ],
      "stateMutability": "view",
      "type": "function"
    },
    {
      "inputs": [],
      "name": "MINTER_ROLE",
      "outputs": [
        {
          "internalType": "bytes32",
          "name": "",
          "type": "bytes32"
        }
      ],
      "stateMutability": "view",
      "type": "function"
    },
    {
      "inputs": [
        {
          "internalType": "uint256",
          "name": "tokenId",
          "type": "uint256"
        },
        {
          "internalType": "uint256",
          "name": "_cap",
          "type": "uint256"
        }
      ],
      "name": "addCap",
      "outputs": [],
      "stateMutability": "nonpayable",
      "type": "function"
    },
    {
      "inputs": [
        {
          "internalType": "uint256[]",
          "name": "ids",
          "type": "uint256[]"
        },
        {
          "internalType": "uint256[]",
          "name": "caps",
          "type": "uint256[]"
        }
      ],
      "name": "addCapBatch",
      "outputs": [],
      "stateMutability": "nonpayable",
      "type": "function"
    },
    {
      "inputs": [
        {
          "internalType": "address",
          "name": "account",
          "type": "address"
        },
        {
          "internalType": "uint256",
          "name": "id",
          "type": "uint256"
        }
      ],
      "name": "balanceOf",
      "outputs": [
        {
          "internalType": "uint256",
          "name": "",
          "type": "uint256"
        }
      ],
      "stateMutability": "view",
      "type": "function"
    },
    {
      "inputs": [
        {
          "internalType": "address[]",
          "name": "accounts",
          "type": "address[]"
        },
        {
          "internalType": "uint256[]",
          "name": "ids",
          "type": "uint256[]"
        }
      ],
      "name": "balanceOfBatch",
      "outputs": [
        {
          "internalType": "uint256[]",
          "name": "",
          "type": "uint256[]"
        }
      ],
      "stateMutability": "view",
      "type": "function"
    },
    {
      "inputs": [
        {
          "internalType": "address",
          "name": "account",
          "type": "address"
        },
        {
          "internalType": "uint256",
          "name": "id",
          "type": "uint256"
        },
        {
          "internalType": "uint256",
          "name": "value",
          "type": "uint256"
        }
      ],
      "name": "burn",
      "outputs": [],
      "stateMutability": "nonpayable",
      "type": "function"
    },
    {
      "inputs": [
        {
          "internalType": "address",
          "name": "account",
          "type": "address"
        },
        {
          "internalType": "uint256[]",
          "name": "ids",
          "type": "uint256[]"
        },
        {
          "internalType": "uint256[]",
          "name": "values",
          "type": "uint256[]"
        }
      ],
      "name": "burnBatch",
      "outputs": [],
      "stateMutability": "nonpayable",
      "type": "function"
    },
    {
      "inputs": [
        {
          "internalType": "uint256",
          "name": "",
          "type": "uint256"
        }
      ],
      "name": "cap",
      "outputs": [
        {
          "internalType": "uint256",
          "name": "",
          "type": "uint256"
        }
      ],
      "stateMutability": "view",
      "type": "function"
    },
    {
      "inputs": [
        {
          "internalType": "uint256",
          "name": "id",
          "type": "uint256"
        }
      ],
      "name": "exists",
      "outputs": [
        {
          "internalType": "bool",
          "name": "",
          "type": "bool"
        }
      ],
      "stateMutability": "view",
      "type": "function"
    },
    {
      "inputs": [
        {
          "internalType": "bytes32",
          "name": "role",
          "type": "bytes32"
        }
      ],
      "name": "getRoleAdmin",
      "outputs": [
        {
          "internalType": "bytes32",
          "name": "",
          "type": "bytes32"
        }
      ],
      "stateMutability": "view",
      "type": "function"
    },
    {
      "inputs": [
        {
          "internalType": "bytes32",
          "name": "role",
          "type": "bytes32"
        },
        {
          "internalType": "uint256",
          "name": "index",
          "type": "uint256"
        }
      ],
      "name": "getRoleMember",
      "outputs": [
        {
          "internalType": "address",
          "name": "",
          "type": "address"
        }
      ],
      "stateMutability": "view",
      "type": "function"
    },
    {
      "inputs": [
        {
          "internalType": "bytes32",
          "name": "role",
          "type": "bytes32"
        }
      ],
      "name": "getRoleMemberCount",
      "outputs": [
        {
          "internalType": "uint256",
          "name": "",
          "type": "uint256"
        }
      ],
      "stateMutability": "view",
      "type": "function"
    },
    {
      "inputs": [
        {
          "internalType": "bytes32",
          "name": "role",
          "type": "bytes32"
        },
        {
          "internalType": "address",
          "name": "account",
          "type": "address"
        }
      ],
      "name": "grantRole",
      "outputs": [],
      "stateMutability": "nonpayable",
      "type": "function"
    },
    {
      "inputs": [
        {
          "internalType": "bytes32",
          "name": "role",
          "type": "bytes32"
        },
        {
          "internalType": "address",
          "name": "account",
          "type": "address"
        }
      ],
      "name": "hasRole",
      "outputs": [
        {
          "internalType": "bool",
          "name": "",
          "type": "bool"
        }
      ],
      "stateMutability": "view",
      "type": "function"
    },
    {
      "inputs": [
        {
          "internalType": "address",
          "name": "account",
          "type": "address"
        },
        {
          "internalType": "address",
          "name": "operator",
          "type": "address"
        }
      ],
      "name": "isApprovedForAll",
      "outputs": [
        {
          "internalType": "bool",
          "name": "",
          "type": "bool"
        }
      ],
      "stateMutability": "view",
      "type": "function"
    },
    {
      "inputs": [
        {
          "internalType": "address",
          "name": "to",
          "type": "address"
        },
        {
          "internalType": "uint256",
          "name": "id",
          "type": "uint256"
        },
        {
          "internalType": "uint256",
          "name": "amount",
          "type": "uint256"
        },
        {
          "internalType": "bytes",
          "name": "data",
          "type": "bytes"
        }
      ],
      "name": "mint",
      "outputs": [],
      "stateMutability": "nonpayable",
      "type": "function"
    },
    {
      "inputs": [
        {
          "internalType": "address",
          "name": "to",
          "type": "address"
        },
        {
          "internalType": "uint256[]",
          "name": "ids",
          "type": "uint256[]"
        },
        {
          "internalType": "uint256[]",
          "name": "amounts",
          "type": "uint256[]"
        },
        {
          "internalType": "bytes",
          "name": "data",
          "type": "bytes"
        }
      ],
      "name": "mintBatch",
      "outputs": [],
      "stateMutability": "nonpayable",
      "type": "function"
    },
    {
      "inputs": [
        {
          "internalType": "bytes32",
          "name": "role",
          "type": "bytes32"
        },
        {
          "internalType": "address",
          "name": "account",
          "type": "address"
        }
      ],
      "name": "renounceRole",
      "outputs": [],
      "stateMutability": "nonpayable",
      "type": "function"
    },
    {
      "inputs": [
        {
          "internalType": "bytes32",
          "name": "role",
          "type": "bytes32"
        },
        {
          "internalType": "address",
          "name": "account",
          "type": "address"
        }
      ],
      "name": "revokeRole",
      "outputs": [],
      "stateMutability": "nonpayable",
      "type": "function"
    },
    {
      "inputs": [
        {
          "internalType": "address",
          "name": "from",
          "type": "address"
        },
        {
          "internalType": "address",
          "name": "to",
          "type": "address"
        },
        {
          "internalType": "uint256[]",
          "name": "ids",
          "type": "uint256[]"
        },
        {
          "internalType": "uint256[]",
          "name": "amounts",
          "type": "uint256[]"
        },
        {
          "internalType": "bytes",
          "name": "data",
          "type": "bytes"
        }
      ],
      "name": "safeBatchTransferFrom",
      "outputs": [],
      "stateMutability": "nonpayable",
      "type": "function"
    },
    {
      "inputs": [
        {
          "internalType": "address",
          "name": "from",
          "type": "address"
        },
        {
          "internalType": "address",
          "name": "to",
          "type": "address"
        },
        {
          "internalType": "uint256",
          "name": "id",
          "type": "uint256"
        },
        {
          "internalType": "uint256",
          "name": "amount",
          "type": "uint256"
        },
        {
          "internalType": "bytes",
          "name": "data",
          "type": "bytes"
        }
      ],
      "name": "safeTransferFrom",
      "outputs": [],
      "stateMutability": "nonpayable",
      "type": "function"
    },
    {
      "inputs": [
        {
          "internalType": "address",
          "name": "operator",
          "type": "address"
        },
        {
          "internalType": "bool",
          "name": "approved",
          "type": "bool"
        }
      ],
      "name": "setApprovalForAll",
      "outputs": [],
      "stateMutability": "nonpayable",
      "type": "function"
    },
    {
      "inputs": [
        {
          "internalType": "bytes4",
          "name": "interfaceId",
          "type": "bytes4"
        }
      ],
      "name": "supportsInterface",
      "outputs": [
        {
          "internalType": "bool",
          "name": "",
          "type": "bool"
        }
      ],
      "stateMutability": "view",
      "type": "function"
    },
    {
      "inputs": [
        {
          "internalType": "uint256",
          "name": "id",
          "type": "uint256"
        }
      ],
      "name": "totalSupply",
      "outputs": [
        {
          "internalType": "uint256",
          "name": "",
          "type": "uint256"
        }
      ],
      "stateMutability": "view",
      "type": "function"
    },
    {
      "inputs": [
        {
          "internalType": "uint256",
          "name": "tokenId",
          "type": "uint256"
        }
      ],
      "name": "uri",
      "outputs": [
        {
          "internalType": "string",
          "name": "",
          "type": "string"
        }
      ],
      "stateMutability": "view",
      "type": "function"
    }
  ],
  "bytecode": "0x60806040523480156200001157600080fd5b506040516200317d3803806200317d8339810160408190526200003491620002d9565b816200004081620000a2565b506200004e600033620000bb565b620000696000805160206200315d83398151915233620000bb565b620000846000805160206200315d83398151915282620000bb565b81516200009990600790602085019062000216565b5050506200041d565b8051620000b790600490602084019062000216565b5050565b620000b78282620000d882826200010460201b62000a851760201c565b6000828152600160209081526040909120620000ff91839062000b09620001a4821b17901c565b505050565b6000828152602081815260408083206001600160a01b038516845290915290205460ff16620000b7576000828152602081815260408083206001600160a01b03851684529091529020805460ff19166001179055620001603390565b6001600160a01b0316816001600160a01b0316837f2f8788117e7eff1d82e926ec794901d17c78024a50270940304540a733656f0d60405160405180910390a45050565b6000620001bb836001600160a01b038416620001c4565b90505b92915050565b60008181526001830160205260408120546200020d57508154600181810184556000848152602080822090930184905584548482528286019093526040902091909155620001be565b506000620001be565b8280546200022490620003ca565b90600052602060002090601f01602090048101928262000248576000855562000293565b82601f106200026357805160ff191683800117855562000293565b8280016001018555821562000293579182015b828111156200029357825182559160200191906001019062000276565b50620002a1929150620002a5565b5090565b5b80821115620002a15760008155600101620002a6565b80516001600160a01b0381168114620002d457600080fd5b919050565b60008060408385031215620002ed57600080fd5b82516001600160401b03808211156200030557600080fd5b818501915085601f8301126200031a57600080fd5b8151818111156200032f576200032f62000407565b604051601f8201601f19908116603f011681019083821181831017156200035a576200035a62000407565b816040528281526020935088848487010111156200037757600080fd5b600091505b828210156200039b57848201840151818301850152908301906200037c565b82821115620003ad5760008484830101525b9550620003bf915050858201620002bc565b925050509250929050565b600181811c90821680620003df57607f821691505b602082108114156200040157634e487b7160e01b600052602260045260246000fd5b50919050565b634e487b7160e01b600052604160045260246000fd5b612d30806200042d6000396000f3fe608060405234801561001057600080fd5b506004361061014d5760003560e01c80639010d07c116100be5780639010d07c146102a757806391d14854146102d2578063a217fddf146102e5578063a22cb465146102ed578063bd85b03914610300578063c01e9a5c14610320578063ca15c87314610333578063d539139314610346578063d547741f1461035b578063e985e9c51461036e578063f242432a146103aa578063f5298aca146103bd578063ff2ad8e4146103d057600080fd5b8062fdd58e1461015257806301ffc9a7146101785780630e89341c1461019b5780631f7fdffa146101bb578063248a9ca3146101d05780632eb2c2d6146101f35780632f2ff15d1461020657806336568abe14610219578063497a049c1461022c5780634e1273f41461023f5780634f558e791461025f5780636b20c45414610281578063731133e914610294575b600080fd5b610165610160366004612295565b6103f0565b6040519081526020015b60405180910390f35b61018b6101863660046124c0565b61048b565b604051901515815260200161016f565b6101ae6101a9366004612462565b610496565b60405161016f919061276e565b6101ce6101c93660046121c1565b610569565b005b6101656101de366004612462565b60009081526020819052604090206001015490565b6101ce610201366004612041565b6105af565b6101ce61021436600461247b565b6105fb565b6101ce61022736600461247b565b610625565b6101ce61023a36600461249e565b6106a3565b61025261024d366004612346565b610715565b60405161016f9190612736565b61018b61026d366004612462565b600090815260056020526040902054151590565b6101ce61028f36600461214e565b61083e565b6101ce6102a23660046122f2565b610881565b6102ba6102b536600461249e565b6108c1565b6040516001600160a01b03909116815260200161016f565b61018b6102e036600461247b565b6108e0565b610165600081565b6101ce6102fb366004612259565b610909565b61016561030e366004612462565b60009081526005602052604090205490565b6101ce61032e366004612416565b610914565b610165610341366004612462565b6109c1565b610165600080516020612cdb83398151915281565b6101ce61036936600461247b565b6109d8565b61018b61037c36600461200e565b6001600160a01b03918216600090815260036020908152604080832093909416825291909152205460ff1690565b6101ce6103b83660046120ea565b6109fd565b6101ce6103cb3660046122bf565b610a42565b6101656103de366004612462565b60066020526000908152604090205481565b60006001600160a01b0383166104605760405162461bcd60e51b815260206004820152602a60248201527f455243313135353a2061646472657373207a65726f206973206e6f742061207660448201526930b634b21037bbb732b960b11b60648201526084015b60405180910390fd5b5060008181526002602090815260408083206001600160a01b03861684529091529020545b92915050565b600061048582610b1e565b60008181526005602052604090205460609061050d5760405162461bcd60e51b815260206004820152603060248201527f455243313135354d657461646174613a2055524920717565727920666f72206e60448201526f37b732bc34b9ba32b73a103a37b5b2b760811b6064820152608401610457565b60006007805461051c90612b05565b9050116105385760405180602001604052806000815250610485565b600761054383610b5e565b60405160200161055492919061257d565b60405160208183030381529060405292915050565b610581600080516020612cdb833981519152336108e0565b61059d5760405162461bcd60e51b8152600401610457906127c9565b6105a984848484610bf2565b50505050565b6001600160a01b0385163314806105cb57506105cb853361037c565b6105e75760405162461bcd60e51b8152600401610457906128a8565b6105f48585858585610d3b565b5050505050565b60008281526020819052604090206001015461061681610ed6565b6106208383610ee3565b505050565b6001600160a01b03811633146106955760405162461bcd60e51b815260206004820152602f60248201527f416363657373436f6e74726f6c3a2063616e206f6e6c792072656e6f756e636560448201526e103937b632b9903337b91039b2b63360891b6064820152608401610457565b61069f8282610f05565b5050565b6106bb600080516020612cdb833981519152336108e0565b6106d75760405162461bcd60e51b8152600401610457906127c9565b806106ee5750600090815260066020526040812055565b6000828152600660205260408120805483929061070c908490612a74565b90915550505050565b6060815183511461077a5760405162461bcd60e51b815260206004820152602960248201527f455243313135353a206163636f756e747320616e6420696473206c656e677468604482015268040dad2e6dac2e8c6d60bb1b6064820152608401610457565b600083516001600160401b0381111561079557610795612bc9565b6040519080825280602002602001820160405280156107be578160200160208202803683370190505b50905060005b8451811015610836576108098582815181106107e2576107e2612bb3565b60200260200101518583815181106107fc576107fc612bb3565b60200260200101516103f0565b82828151811061081b5761081b612bb3565b602090810291909101015261082f81612b6c565b90506107c4565b509392505050565b6001600160a01b03831633148061085a575061085a833361037c565b6108765760405162461bcd60e51b81526004016104579061285f565b610620838383610f27565b610899600080516020612cdb833981519152336108e0565b6108b55760405162461bcd60e51b8152600401610457906127c9565b6105a9848484846110b4565b60008281526001602052604081206108d9908361118d565b9392505050565b6000918252602082815260408084206001600160a01b0393909316845291905290205460ff1690565b61069f338383611199565b61092c600080516020612cdb833981519152336108e0565b6109485760405162461bcd60e51b8152600401610457906127c9565b60005b82518110156106205781818151811061096657610966612bb3565b60200260200101516006600085848151811061098457610984612bb3565b6020026020010151815260200190815260200160002060008282546109a99190612a74565b909155508190506109b981612b6c565b91505061094b565b60008181526001602052604081206104859061127a565b6000828152602081905260409020600101546109f381610ed6565b6106208383610f05565b6001600160a01b038516331480610a195750610a19853361037c565b610a355760405162461bcd60e51b8152600401610457906128a8565b6105f48585858585611284565b6001600160a01b038316331480610a5e5750610a5e833361037c565b610a7a5760405162461bcd60e51b81526004016104579061285f565b6106208383836113ae565b610a8f82826108e0565b61069f576000828152602081815260408083206001600160a01b03851684529091529020805460ff19166001179055610ac53390565b6001600160a01b0316816001600160a01b0316837f2f8788117e7eff1d82e926ec794901d17c78024a50270940304540a733656f0d60405160405180910390a45050565b60006108d9836001600160a01b0384166114b8565b60006001600160e01b03198216636cdb3d1360e11b1480610b4f57506001600160e01b031982166303a24d0760e21b145b80610485575061048582611507565b60606000610b6b8361152c565b60010190506000816001600160401b03811115610b8a57610b8a612bc9565b6040519080825280601f01601f191660200182016040528015610bb4576020820181803683370190505b5090508181016020015b600019016f181899199a1a9b1b9c1cb0b131b232b360811b600a86061a8153600a8504945084610bed57610836565b610bbe565b6001600160a01b038416610c185760405162461bcd60e51b815260040161045790612a10565b8151835114610c395760405162461bcd60e51b8152600401610457906129c8565b33610c4981600087878787611602565b60005b8451811015610ce557838181518110610c6757610c67612bb3565b602002602001015160026000878481518110610c8557610c85612bb3565b602002602001015181526020019081526020016000206000886001600160a01b03166001600160a01b031681526020019081526020016000206000828254610ccd9190612a74565b90915550819050610cdd81612b6c565b915050610c4c565b50846001600160a01b031660006001600160a01b0316826001600160a01b0316600080516020612c9b8339815191528787604051610d24929190612749565b60405180910390a46105f48160008787878761173d565b8151835114610d5c5760405162461bcd60e51b8152600401610457906129c8565b6001600160a01b038416610d825760405162461bcd60e51b8152600401610457906128f6565b33610d91818787878787611602565b60005b8451811015610e7a576000858281518110610db157610db1612bb3565b602002602001015190506000858381518110610dcf57610dcf612bb3565b60209081029190910181015160008481526002835260408082206001600160a01b038e168352909352919091205490915081811015610e205760405162461bcd60e51b81526004016104579061297e565b60008381526002602090815260408083206001600160a01b038e8116855292528083208585039055908b16825281208054849290610e5f908490612a74565b9250508190555050505080610e7390612b6c565b9050610d94565b50846001600160a01b0316866001600160a01b0316826001600160a01b0316600080516020612c9b8339815191528787604051610eb8929190612749565b60405180910390a4610ece81878787878761173d565b505050505050565b610ee081336118a8565b50565b610eed8282610a85565b60008281526001602052604090206106209082610b09565b610f0f8282611901565b60008281526001602052604090206106209082611966565b6001600160a01b038316610f4d5760405162461bcd60e51b81526004016104579061293b565b8051825114610f6e5760405162461bcd60e51b8152600401610457906129c8565b6000339050610f9181856000868660405180602001604052806000815250611602565b60005b8351811015611059576000848281518110610fb157610fb1612bb3565b602002602001015190506000848381518110610fcf57610fcf612bb3565b60209081029190910181015160008481526002835260408082206001600160a01b038c1683529093529190912054909150818110156110205760405162461bcd60e51b81526004016104579061281b565b60009283526002602090815260408085206001600160a01b038b168652909152909220910390558061105181612b6c565b915050610f94565b5060006001600160a01b0316846001600160a01b0316826001600160a01b0316600080516020612c9b8339815191528686604051611098929190612749565b60405180910390a46040805160208101909152600090526105a9565b6001600160a01b0384166110da5760405162461bcd60e51b815260040161045790612a10565b3360006110e68561197b565b905060006110f38561197b565b905061110483600089858589611602565b60008681526002602090815260408083206001600160a01b038b16845290915281208054879290611136908490612a74565b909155505060408051878152602081018790526001600160a01b03808a169260009291871691600080516020612cbb833981519152910160405180910390a4611184836000898989896119c6565b50505050505050565b60006108d98383611a90565b816001600160a01b0316836001600160a01b0316141561120d5760405162461bcd60e51b815260206004820152602960248201527f455243313135353a2073657474696e6720617070726f76616c20737461747573604482015268103337b91039b2b63360b91b6064820152608401610457565b6001600160a01b03838116600081815260036020908152604080832094871680845294825291829020805460ff191686151590811790915591519182527f17307eab39ab6107e8899845ad3d59bd9653f200f220920489ca2b5937696c31910160405180910390a3505050565b6000610485825490565b6001600160a01b0384166112aa5760405162461bcd60e51b8152600401610457906128f6565b3360006112b68561197b565b905060006112c38561197b565b90506112d3838989858589611602565b60008681526002602090815260408083206001600160a01b038c168452909152902054858110156113165760405162461bcd60e51b81526004016104579061297e565b60008781526002602090815260408083206001600160a01b038d8116855292528083208985039055908a16825281208054889290611355908490612a74565b909155505060408051888152602081018890526001600160a01b03808b16928c82169291881691600080516020612cbb833981519152910160405180910390a46113a3848a8a8a8a8a6119c6565b505050505050505050565b6001600160a01b0383166113d45760405162461bcd60e51b81526004016104579061293b565b3360006113e08461197b565b905060006113ed8461197b565b905061140d83876000858560405180602001604052806000815250611602565b60008581526002602090815260408083206001600160a01b038a168452909152902054848110156114505760405162461bcd60e51b81526004016104579061281b565b60008681526002602090815260408083206001600160a01b038b81168086529184528285208a8703905582518b81529384018a9052909290881691600080516020612cbb833981519152910160405180910390a4604080516020810190915260009052611184565b60008181526001830160205260408120546114ff57508154600181810184556000848152602080822090930184905584548482528286019093526040902091909155610485565b506000610485565b60006001600160e01b03198216635a05180f60e01b1480610485575061048582611aba565b60008072184f03e93ff9f4daa797ed6e38ed64bf6a1f0160401b831061156b5772184f03e93ff9f4daa797ed6e38ed64bf6a1f0160401b830492506040015b6904ee2d6d415b85acef8160201b8310611595576904ee2d6d415b85acef8160201b830492506020015b662386f26fc1000083106115b357662386f26fc10000830492506010015b6305f5e10083106115cb576305f5e100830492506008015b61271083106115df57612710830492506004015b606483106115f1576064830492506002015b600a83106104855760010192915050565b6001600160a01b03851661172f5760005b835181101561172d5760006006600086848151811061163457611634612bb3565b6020026020010151815260200190815260200160002054111561171b576006600085838151811061166757611667612bb3565b602002602001015181526020019081526020016000205483828151811061169057611690612bb3565b60200260200101516116c78684815181106116ad576116ad612bb3565b602002602001015160009081526005602052604090205490565b6116d19190612a74565b111561171b5760405162461bcd60e51b8152602060048201526019602482015278455243313135354d696e746572537570706c793a206361702160381b6044820152606401610457565b8061172581612b6c565b915050611613565b505b610ece868686868686611aef565b6001600160a01b0384163b15610ece5760405163bc197c8160e01b81526001600160a01b0385169063bc197c81906117819089908990889088908890600401612693565b602060405180830381600087803b15801561179b57600080fd5b505af19250505080156117cb575060408051601f3d908101601f191682019092526117c8918101906124dd565b60015b611878576117d7612bdf565b806308c379a0141561181157506117ec612bfb565b806117f75750611813565b8060405162461bcd60e51b8152600401610457919061276e565b505b60405162461bcd60e51b815260206004820152603460248201527f455243313135353a207472616e7366657220746f206e6f6e2d455243313135356044820152732932b1b2b4bb32b91034b6b83632b6b2b73a32b960611b6064820152608401610457565b6001600160e01b0319811663bc197c8160e01b146111845760405162461bcd60e51b815260040161045790612781565b6118b282826108e0565b61069f576118bf81611c68565b6118ca836020611c7a565b6040516020016118db929190612624565b60408051601f198184030181529082905262461bcd60e51b82526104579160040161276e565b61190b82826108e0565b1561069f576000828152602081815260408083206001600160a01b0385168085529252808320805460ff1916905551339285917ff6391f5c32d9c69d2a47ea670b442974b53935d1edc7fd64eb21e047a839171b9190a45050565b60006108d9836001600160a01b038416611e15565b604080516001808252818301909252606091600091906020808301908036833701905050905082816000815181106119b5576119b5612bb3565b602090810291909101015292915050565b6001600160a01b0384163b15610ece5760405163f23a6e6160e01b81526001600160a01b0385169063f23a6e6190611a0a90899089908890889088906004016126f1565b602060405180830381600087803b158015611a2457600080fd5b505af1925050508015611a54575060408051601f3d908101601f19168201909252611a51918101906124dd565b60015b611a60576117d7612bdf565b6001600160e01b0319811663f23a6e6160e01b146111845760405162461bcd60e51b815260040161045790612781565b6000826000018281548110611aa757611aa7612bb3565b9060005260206000200154905092915050565b60006001600160e01b03198216637965db0b60e01b148061048557506301ffc9a760e01b6001600160e01b0319831614610485565b6001600160a01b038516611b765760005b8351811015611b7457828181518110611b1b57611b1b612bb3565b602002602001015160056000868481518110611b3957611b39612bb3565b602002602001015181526020019081526020016000206000828254611b5e9190612a74565b90915550611b6d905081612b6c565b9050611b00565b505b6001600160a01b038416610ece5760005b8351811015611184576000848281518110611ba457611ba4612bb3565b602002602001015190506000848381518110611bc257611bc2612bb3565b6020026020010151905060006005600084815260200190815260200160002054905081811015611c455760405162461bcd60e51b815260206004820152602860248201527f455243313135353a206275726e20616d6f756e74206578636565647320746f74604482015267616c537570706c7960c01b6064820152608401610457565b60009283526005602052604090922091039055611c6181612b6c565b9050611b87565b60606104856001600160a01b03831660145b60606000611c89836002612a8c565b611c94906002612a74565b6001600160401b03811115611cab57611cab612bc9565b6040519080825280601f01601f191660200182016040528015611cd5576020820181803683370190505b509050600360fc1b81600081518110611cf057611cf0612bb3565b60200101906001600160f81b031916908160001a905350600f60fb1b81600181518110611d1f57611d1f612bb3565b60200101906001600160f81b031916908160001a9053506000611d43846002612a8c565b611d4e906001612a74565b90505b6001811115611dc6576f181899199a1a9b1b9c1cb0b131b232b360811b85600f1660108110611d8257611d82612bb3565b1a60f81b828281518110611d9857611d98612bb3565b60200101906001600160f81b031916908160001a90535060049490941c93611dbf81612aee565b9050611d51565b5083156108d95760405162461bcd60e51b815260206004820181905260248201527f537472696e67733a20686578206c656e67746820696e73756666696369656e746044820152606401610457565b60008181526001830160205260408120548015611efe576000611e39600183612aab565b8554909150600090611e4d90600190612aab565b9050818114611eb2576000866000018281548110611e6d57611e6d612bb3565b9060005260206000200154905080876000018481548110611e9057611e90612bb3565b6000918252602080832090910192909255918252600188019052604090208390555b8554869080611ec357611ec3612b9d565b600190038181906000526020600020016000905590558560010160008681526020019081526020016000206000905560019350505050610485565b6000915050610485565b80356001600160a01b0381168114611f1f57600080fd5b919050565b600082601f830112611f3557600080fd5b81356020611f4282612a51565b604051611f4f8282612b40565b8381528281019150858301600585901b87018401881015611f6f57600080fd5b60005b85811015611f8e57813584529284019290840190600101611f72565b5090979650505050505050565b600082601f830112611fac57600080fd5b81356001600160401b03811115611fc557611fc5612bc9565b604051611fdc601f8301601f191660200182612b40565b818152846020838601011115611ff157600080fd5b816020850160208301376000918101602001919091529392505050565b6000806040838503121561202157600080fd5b61202a83611f08565b915061203860208401611f08565b90509250929050565b600080600080600060a0868803121561205957600080fd5b61206286611f08565b945061207060208701611f08565b935060408601356001600160401b038082111561208c57600080fd5b61209889838a01611f24565b945060608801359150808211156120ae57600080fd5b6120ba89838a01611f24565b935060808801359150808211156120d057600080fd5b506120dd88828901611f9b565b9150509295509295909350565b600080600080600060a0868803121561210257600080fd5b61210b86611f08565b945061211960208701611f08565b9350604086013592506060860135915060808601356001600160401b0381111561214257600080fd5b6120dd88828901611f9b565b60008060006060848603121561216357600080fd5b61216c84611f08565b925060208401356001600160401b038082111561218857600080fd5b61219487838801611f24565b935060408601359150808211156121aa57600080fd5b506121b786828701611f24565b9150509250925092565b600080600080608085870312156121d757600080fd5b6121e085611f08565b935060208501356001600160401b03808211156121fc57600080fd5b61220888838901611f24565b9450604087013591508082111561221e57600080fd5b61222a88838901611f24565b9350606087013591508082111561224057600080fd5b5061224d87828801611f9b565b91505092959194509250565b6000806040838503121561226c57600080fd5b61227583611f08565b91506020830135801515811461228a57600080fd5b809150509250929050565b600080604083850312156122a857600080fd5b6122b183611f08565b946020939093013593505050565b6000806000606084860312156122d457600080fd5b6122dd84611f08565b95602085013595506040909401359392505050565b6000806000806080858703121561230857600080fd5b61231185611f08565b9350602085013592506040850135915060608501356001600160401b0381111561233a57600080fd5b61224d87828801611f9b565b6000806040838503121561235957600080fd5b82356001600160401b038082111561237057600080fd5b818501915085601f83011261238457600080fd5b8135602061239182612a51565b60405161239e8282612b40565b8381528281019150858301600585901b870184018b10156123be57600080fd5b600096505b848710156123e8576123d481611f08565b8352600196909601959183019183016123c3565b50965050860135925050808211156123ff57600080fd5b5061240c85828601611f24565b9150509250929050565b6000806040838503121561242957600080fd5b82356001600160401b038082111561244057600080fd5b61244c86838701611f24565b935060208501359150808211156123ff57600080fd5b60006020828403121561247457600080fd5b5035919050565b6000806040838503121561248e57600080fd5b8235915061203860208401611f08565b600080604083850312156124b157600080fd5b50508035926020909101359150565b6000602082840312156124d257600080fd5b81356108d981612c84565b6000602082840312156124ef57600080fd5b81516108d981612c84565b600081518084526020808501945080840160005b8381101561252a5781518752958201959082019060010161250e565b509495945050505050565b6000815180845261254d816020860160208601612ac2565b601f01601f19169290920160200192915050565b60008151612573818560208601612ac2565b9290920192915050565b600080845481600182811c91508083168061259957607f831692505b60208084108214156125b957634e487b7160e01b86526022600452602486fd5b8180156125cd57600181146125de5761260b565b60ff1986168952848901965061260b565b60008b81526020902060005b868110156126035781548b8201529085019083016125ea565b505084890196505b50505050505061261b8185612561565b95945050505050565b76020b1b1b2b9b9a1b7b73a3937b61d1030b1b1b7bab73a1604d1b815260008351612656816017850160208801612ac2565b7001034b99036b4b9b9b4b733903937b6329607d1b6017918401918201528351612687816028840160208801612ac2565b01602801949350505050565b6001600160a01b0386811682528516602082015260a0604082018190526000906126bf908301866124fa565b82810360608401526126d181866124fa565b905082810360808401526126e58185612535565b98975050505050505050565b6001600160a01b03868116825285166020820152604081018490526060810183905260a06080820181905260009061272b90830184612535565b979650505050505050565b6020815260006108d960208301846124fa565b60408152600061275c60408301856124fa565b828103602084015261261b81856124fa565b6020815260006108d96020830184612535565b60208082526028908201527f455243313135353a204552433131353552656365697665722072656a656374656040820152676420746f6b656e7360c01b606082015260800190565b60208082526032908201527f455243313135354d696e746572537570706c793a206d7573742068617665206d6040820152711a5b9d195c881c9bdb19481d1bc81b5a5b9d60721b606082015260800190565b60208082526024908201527f455243313135353a206275726e20616d6f756e7420657863656564732062616c604082015263616e636560e01b606082015260800190565b60208082526029908201527f455243313135353a2063616c6c6572206973206e6f74206f776e6572206e6f7260408201526808185c1c1c9bdd995960ba1b606082015260800190565b6020808252602e908201527f455243313135353a2063616c6c6572206973206e6f7420746f6b656e206f776e60408201526d195c881bdc88185c1c1c9bdd995960921b606082015260800190565b60208082526025908201527f455243313135353a207472616e7366657220746f20746865207a65726f206164604082015264647265737360d81b606082015260800190565b60208082526023908201527f455243313135353a206275726e2066726f6d20746865207a65726f206164647260408201526265737360e81b606082015260800190565b6020808252602a908201527f455243313135353a20696e73756666696369656e742062616c616e636520666f60408201526939103a3930b739b332b960b11b606082015260800190565b60208082526028908201527f455243313135353a2069647320616e6420616d6f756e7473206c656e677468206040820152670dad2e6dac2e8c6d60c31b606082015260800190565b60208082526021908201527f455243313135353a206d696e7420746f20746865207a65726f206164647265736040820152607360f81b606082015260800190565b60006001600160401b03821115612a6a57612a6a612bc9565b5060051b60200190565b60008219821115612a8757612a87612b87565b500190565b6000816000190483118215151615612aa657612aa6612b87565b500290565b600082821015612abd57612abd612b87565b500390565b60005b83811015612add578181015183820152602001612ac5565b838111156105a95750506000910152565b600081612afd57612afd612b87565b506000190190565b600181811c90821680612b1957607f821691505b60208210811415612b3a57634e487b7160e01b600052602260045260246000fd5b50919050565b601f8201601f191681016001600160401b0381118282101715612b6557612b65612bc9565b6040525050565b6000600019821415612b8057612b80612b87565b5060010190565b634e487b7160e01b600052601160045260246000fd5b634e487b7160e01b600052603160045260246000fd5b634e487b7160e01b600052603260045260246000fd5b634e487b7160e01b600052604160045260246000fd5b600060033d1115612bf85760046000803e5060005160e01c5b90565b600060443d1015612c095790565b6040516003193d81016004833e81513d6001600160401b038160248401118184111715612c3857505050505090565b8285019150815181811115612c505750505050505090565b843d8701016020828501011115612c6a5750505050505090565b612c7960208286010187612b40565b509095945050505050565b6001600160e01b031981168114610ee057600080fdfe4a39dc06d4c0dbc64b70af90fd698a233a518aa5d07e595d983b8c0526c8f7fbc3d58168c5ae7397731d063d5bbf3d657854427343f4c083240f7aacaa2d0f629f2df0fed2c77648de5860a4cc508cd0818c85b8b8a1ab4ceeef8d981c8956a6a26469706673582212206ca7bfee572acdc3a3c5ba05f43af1b6c2c88994541c7cf7dc708132fd05cf0964736f6c634300080700339f2df0fed2c77648de5860a4cc508cd0818c85b8b8a1ab4ceeef8d981c8956a6",
  "linkReferences": {},
  "deployedLinkReferences": {}
}