{
  "_format": "hh-sol-artifact-1",
  "contractName": "ClusterRuleAreaHandler",
  "sourceName": "contracts/V3/ClusterRuleAreaHandler.sol",
  "abi": [
    {
      "anonymous": false,
      "inputs": [
        {
          "indexed": true,
          "internalType": "address",
          "name": "caller",
          "type": "address"
        },
        {
          "indexed": true,
          "internalType": "uint8",
          "name": "regType",
          "type": "uint8"
        },
        {
          "indexed": true,
          "internalType": "uint32",
          "name": "clusterId",
          "type": "uint32"
        },
        {
          "indexed": false,
          "internalType": "uint8",
          "name": "ruleSlotIndex1",
          "type": "uint8"
        },
        {
          "indexed": false,
          "internalType": "uint8",
          "name": "ruleSlotIndex2",
          "type": "uint8"
        }
      ],
      "name": "EventClusterHandler",
      "type": "event"
    },
    {
      "anonymous": false,
      "inputs": [
        {
          "indexed": false,
          "internalType": "uint8",
          "name": "version",
          "type": "uint8"
        }
      ],
      "name": "Initialized",
      "type": "event"
    },
    {
      "anonymous": false,
      "inputs": [
        {
          "indexed": true,
          "internalType": "address",
          "name": "previousOwner",
          "type": "address"
        },
        {
          "indexed": true,
          "internalType": "address",
          "name": "newOwner",
          "type": "address"
        }
      ],
      "name": "OwnershipTransferred",
      "type": "event"
    },
    {
      "inputs": [],
      "name": "clusterArea",
      "outputs": [
        {
          "internalType": "address",
          "name": "",
          "type": "address"
        }
      ],
      "stateMutability": "view",
      "type": "function"
    },
    {
      "inputs": [],
      "name": "cname",
      "outputs": [
        {
          "internalType": "string",
          "name": "",
          "type": "string"
        }
      ],
      "stateMutability": "pure",
      "type": "function"
    },
    {
      "inputs": [],
      "name": "engine",
      "outputs": [
        {
          "internalType": "address",
          "name": "",
          "type": "address"
        }
      ],
      "stateMutability": "view",
      "type": "function"
    },
    {
      "inputs": [],
      "name": "getClusterArea",
      "outputs": [
        {
          "internalType": "address",
          "name": "",
          "type": "address"
        }
      ],
      "stateMutability": "view",
      "type": "function"
    },
    {
      "inputs": [],
      "name": "getEngine",
      "outputs": [
        {
          "internalType": "address",
          "name": "",
          "type": "address"
        }
      ],
      "stateMutability": "view",
      "type": "function"
    },
    {
      "inputs": [
        {
          "internalType": "uint32",
          "name": "clusterId",
          "type": "uint32"
        }
      ],
      "name": "getHandlerList",
      "outputs": [
        {
          "internalType": "address[]",
          "name": "",
          "type": "address[]"
        }
      ],
      "stateMutability": "view",
      "type": "function"
    },
    {
      "inputs": [
        {
          "internalType": "uint32",
          "name": "clusterId",
          "type": "uint32"
        }
      ],
      "name": "getHandlerPoolList",
      "outputs": [
        {
          "internalType": "address[]",
          "name": "",
          "type": "address[]"
        }
      ],
      "stateMutability": "view",
      "type": "function"
    },
    {
      "inputs": [],
      "name": "getPoolContract",
      "outputs": [
        {
          "internalType": "address",
          "name": "",
          "type": "address"
        }
      ],
      "stateMutability": "view",
      "type": "function"
    },
    {
      "inputs": [],
      "name": "getPoolFee",
      "outputs": [
        {
          "internalType": "address",
          "name": "",
          "type": "address"
        }
      ],
      "stateMutability": "view",
      "type": "function"
    },
    {
      "inputs": [
        {
          "internalType": "uint32",
          "name": "clusterId",
          "type": "uint32"
        },
        {
          "internalType": "uint16",
          "name": "ruleSlotIndexInput",
          "type": "uint16"
        },
        {
          "internalType": "uint16",
          "name": "ruleSlotIndexOutput",
          "type": "uint16"
        }
      ],
      "name": "getPostHandlerList",
      "outputs": [
        {
          "internalType": "address[]",
          "name": "",
          "type": "address[]"
        }
      ],
      "stateMutability": "view",
      "type": "function"
    },
    {
      "inputs": [
        {
          "internalType": "uint32",
          "name": "clusterId",
          "type": "uint32"
        },
        {
          "internalType": "uint16",
          "name": "ruleSlotIndexInput",
          "type": "uint16"
        },
        {
          "internalType": "uint16",
          "name": "ruleSlotIndexOutput",
          "type": "uint16"
        }
      ],
      "name": "getPreHandlerList",
      "outputs": [
        {
          "internalType": "address[]",
          "name": "",
          "type": "address[]"
        }
      ],
      "stateMutability": "view",
      "type": "function"
    },
    {
      "inputs": [
        {
          "internalType": "uint32",
          "name": "clusterId",
          "type": "uint32"
        },
        {
          "internalType": "uint16",
          "name": "ruleSlotIndexInput",
          "type": "uint16"
        },
        {
          "internalType": "uint16",
          "name": "ruleSlotIndexOutput",
          "type": "uint16"
        }
      ],
      "name": "getProcessHandlerList",
      "outputs": [
        {
          "internalType": "address[]",
          "name": "",
          "type": "address[]"
        }
      ],
      "stateMutability": "view",
      "type": "function"
    },
    {
      "inputs": [
        {
          "internalType": "uint32",
          "name": "clusterId",
          "type": "uint32"
        },
        {
          "internalType": "uint16",
          "name": "ruleSlotIndexInput",
          "type": "uint16"
        },
        {
          "internalType": "uint16",
          "name": "ruleSlotIndexOutput",
          "type": "uint16"
        }
      ],
      "name": "getSnippet",
      "outputs": [
        {
          "internalType": "address",
          "name": "",
          "type": "address"
        }
      ],
      "stateMutability": "view",
      "type": "function"
    },
    {
      "inputs": [
        {
          "internalType": "address",
          "name": "clusterArea_",
          "type": "address"
        },
        {
          "internalType": "address",
          "name": "poolContract_",
          "type": "address"
        },
        {
          "internalType": "address",
          "name": "poolFee_",
          "type": "address"
        },
        {
          "internalType": "address",
          "name": "engine_",
          "type": "address"
        }
      ],
      "name": "initialize",
      "outputs": [],
      "stateMutability": "nonpayable",
      "type": "function"
    },
    {
      "inputs": [],
      "name": "owner",
      "outputs": [
        {
          "internalType": "address",
          "name": "",
          "type": "address"
        }
      ],
      "stateMutability": "view",
      "type": "function"
    },
    {
      "inputs": [],
      "name": "poolContract",
      "outputs": [
        {
          "internalType": "address",
          "name": "",
          "type": "address"
        }
      ],
      "stateMutability": "view",
      "type": "function"
    },
    {
      "inputs": [],
      "name": "poolFee",
      "outputs": [
        {
          "internalType": "address",
          "name": "",
          "type": "address"
        }
      ],
      "stateMutability": "view",
      "type": "function"
    },
    {
      "inputs": [
        {
          "internalType": "uint32",
          "name": "clusterId",
          "type": "uint32"
        },
        {
          "components": [
            {
              "components": [
                {
                  "components": [
                    {
                      "components": [
                        {
                          "internalType": "uint8",
                          "name": "erc",
                          "type": "uint8"
                        },
                        {
                          "internalType": "address",
                          "name": "token",
                          "type": "address"
                        },
                        {
                          "internalType": "uint256[]",
                          "name": "valueList",
                          "type": "uint256[]"
                        }
                      ],
                      "internalType": "struct Token.TokenTemplate",
                      "name": "tokenTemplate",
                      "type": "tuple"
                    },
                    {
                      "internalType": "uint8",
                      "name": "rule",
                      "type": "uint8"
                    },
                    {
                      "internalType": "address[]",
                      "name": "ioAddressList",
                      "type": "address[]"
                    },
                    {
                      "internalType": "uint256[]",
                      "name": "valueList",
                      "type": "uint256[]"
                    }
                  ],
                  "internalType": "struct Rule.TokenSlot[]",
                  "name": "tokenSlotList",
                  "type": "tuple[]"
                },
                {
                  "internalType": "uint8",
                  "name": "branch",
                  "type": "uint8"
                },
                {
                  "internalType": "address",
                  "name": "poolToken",
                  "type": "address"
                },
                {
                  "internalType": "address[]",
                  "name": "handlerList",
                  "type": "address[]"
                },
                {
                  "internalType": "bytes[]",
                  "name": "argsList",
                  "type": "bytes[]"
                }
              ],
              "internalType": "struct Rule.GroupSlot[]",
              "name": "groupSlotList",
              "type": "tuple[]"
            },
            {
              "internalType": "uint8[]",
              "name": "ruleSlotBound",
              "type": "uint8[]"
            },
            {
              "components": [
                {
                  "internalType": "uint16",
                  "name": "ruleSlotIndexInput",
                  "type": "uint16"
                },
                {
                  "internalType": "uint16",
                  "name": "ruleSlotIndexOutput",
                  "type": "uint16"
                },
                {
                  "internalType": "uint8",
                  "name": "state",
                  "type": "uint8"
                },
                {
                  "internalType": "uint32",
                  "name": "totalCount",
                  "type": "uint32"
                },
                {
                  "internalType": "uint8",
                  "name": "durationType",
                  "type": "uint8"
                },
                {
                  "internalType": "uint32",
                  "name": "delayTimestamp",
                  "type": "uint32"
                },
                {
                  "internalType": "uint32",
                  "name": "delayBlockNumber",
                  "type": "uint32"
                },
                {
                  "internalType": "uint64",
                  "name": "handlerCount",
                  "type": "uint64"
                },
                {
                  "internalType": "address[]",
                  "name": "handlerList",
                  "type": "address[]"
                },
                {
                  "internalType": "bytes[]",
                  "name": "handlerArgsList",
                  "type": "bytes[]"
                },
                {
                  "internalType": "address",
                  "name": "snippet",
                  "type": "address"
                }
              ],
              "internalType": "struct Rule.Rule[]",
              "name": "ruleList",
              "type": "tuple[]"
            },
            {
              "components": [
                {
                  "internalType": "uint32",
                  "name": "attrId",
                  "type": "uint32"
                },
                {
                  "internalType": "string",
                  "name": "name",
                  "type": "string"
                },
                {
                  "internalType": "string",
                  "name": "symbol",
                  "type": "string"
                },
                {
                  "internalType": "string",
                  "name": "uri",
                  "type": "string"
                },
                {
                  "internalType": "uint8",
                  "name": "level",
                  "type": "uint8"
                }
              ],
              "internalType": "struct Attribute.Attribute[]",
              "name": "attrList",
              "type": "tuple[]"
            },
            {
              "internalType": "uint8[]",
              "name": "attrStateList",
              "type": "uint8[]"
            },
            {
              "internalType": "address[]",
              "name": "deployerList",
              "type": "address[]"
            },
            {
              "internalType": "address[]",
              "name": "adminList",
              "type": "address[]"
            },
            {
              "internalType": "uint32",
              "name": "delayTimestamp",
              "type": "uint32"
            },
            {
              "internalType": "uint32",
              "name": "delayBlockNumber",
              "type": "uint32"
            },
            {
              "internalType": "uint8",
              "name": "state",
              "type": "uint8"
            },
            {
              "internalType": "string",
              "name": "description",
              "type": "string"
            }
          ],
          "internalType": "struct Cluster.Cluster",
          "name": "cluster",
          "type": "tuple"
        }
      ],
      "name": "registerHandlerList",
      "outputs": [],
      "stateMutability": "nonpayable",
      "type": "function"
    },
    {
      "inputs": [],
      "name": "renounceOwnership",
      "outputs": [],
      "stateMutability": "nonpayable",
      "type": "function"
    },
    {
      "inputs": [
        {
          "internalType": "uint32",
          "name": "",
          "type": "uint32"
        },
        {
          "internalType": "uint256",
          "name": "",
          "type": "uint256"
        }
      ],
      "name": "ruleHandlerList",
      "outputs": [
        {
          "internalType": "address",
          "name": "",
          "type": "address"
        }
      ],
      "stateMutability": "view",
      "type": "function"
    },
    {
      "inputs": [
        {
          "internalType": "uint32",
          "name": "",
          "type": "uint32"
        },
        {
          "internalType": "uint256",
          "name": "",
          "type": "uint256"
        }
      ],
      "name": "ruleHandlerPoolList",
      "outputs": [
        {
          "internalType": "address",
          "name": "",
          "type": "address"
        }
      ],
      "stateMutability": "view",
      "type": "function"
    },
    {
      "inputs": [
        {
          "internalType": "bytes32",
          "name": "",
          "type": "bytes32"
        },
        {
          "internalType": "uint256",
          "name": "",
          "type": "uint256"
        }
      ],
      "name": "rulePostHandlerList",
      "outputs": [
        {
          "internalType": "address",
          "name": "",
          "type": "address"
        }
      ],
      "stateMutability": "view",
      "type": "function"
    },
    {
      "inputs": [
        {
          "internalType": "bytes32",
          "name": "",
          "type": "bytes32"
        },
        {
          "internalType": "uint256",
          "name": "",
          "type": "uint256"
        }
      ],
      "name": "rulePreHandlerList",
      "outputs": [
        {
          "internalType": "address",
          "name": "",
          "type": "address"
        }
      ],
      "stateMutability": "view",
      "type": "function"
    },
    {
      "inputs": [
        {
          "internalType": "bytes32",
          "name": "",
          "type": "bytes32"
        },
        {
          "internalType": "uint256",
          "name": "",
          "type": "uint256"
        }
      ],
      "name": "ruleProcessHandlerList",
      "outputs": [
        {
          "internalType": "address",
          "name": "",
          "type": "address"
        }
      ],
      "stateMutability": "view",
      "type": "function"
    },
    {
      "inputs": [
        {
          "internalType": "bytes32",
          "name": "",
          "type": "bytes32"
        }
      ],
      "name": "ruleSnippet",
      "outputs": [
        {
          "internalType": "address",
          "name": "",
          "type": "address"
        }
      ],
      "stateMutability": "view",
      "type": "function"
    },
    {
      "inputs": [
        {
          "internalType": "address",
          "name": "clusterArea_",
          "type": "address"
        }
      ],
      "name": "setClusterArea",
      "outputs": [],
      "stateMutability": "nonpayable",
      "type": "function"
    },
    {
      "inputs": [
        {
          "internalType": "address",
          "name": "engine_",
          "type": "address"
        }
      ],
      "name": "setEngine",
      "outputs": [],
      "stateMutability": "nonpayable",
      "type": "function"
    },
    {
      "inputs": [
        {
          "internalType": "address",
          "name": "poolContract_",
          "type": "address"
        }
      ],
      "name": "setPoolContract",
      "outputs": [],
      "stateMutability": "nonpayable",
      "type": "function"
    },
    {
      "inputs": [
        {
          "internalType": "address",
          "name": "newOwner",
          "type": "address"
        }
      ],
      "name": "transferOwnership",
      "outputs": [],
      "stateMutability": "nonpayable",
      "type": "function"
    },
    {
      "inputs": [
        {
          "internalType": "uint32",
          "name": "clusterId",
          "type": "uint32"
        },
        {
          "internalType": "uint16",
          "name": "ruleSlotIndexInput",
          "type": "uint16"
        },
        {
          "internalType": "uint16",
          "name": "ruleSlotIndexOutput",
          "type": "uint16"
        },
        {
          "internalType": "uint8",
          "name": "cmd",
          "type": "uint8"
        },
        {
          "internalType": "address",
          "name": "handler",
          "type": "address"
        },
        {
          "internalType": "bytes",
          "name": "args",
          "type": "bytes"
        }
      ],
      "name": "updateHandlerArgs",
      "outputs": [
        {
          "internalType": "bool",
          "name": "",
          "type": "bool"
        }
      ],
      "stateMutability": "nonpayable",
      "type": "function"
    },
    {
      "inputs": [
        {
          "internalType": "uint32",
          "name": "clusterId",
          "type": "uint32"
        },
        {
          "components": [
            {
              "internalType": "uint16",
              "name": "ruleSlotIndexInput",
              "type": "uint16"
            },
            {
              "internalType": "uint16",
              "name": "ruleSlotIndexOutput",
              "type": "uint16"
            },
            {
              "internalType": "uint8",
              "name": "state",
              "type": "uint8"
            },
            {
              "internalType": "uint32",
              "name": "totalCount",
              "type": "uint32"
            },
            {
              "internalType": "uint8",
              "name": "durationType",
              "type": "uint8"
            },
            {
              "internalType": "uint32",
              "name": "delayTimestamp",
              "type": "uint32"
            },
            {
              "internalType": "uint32",
              "name": "delayBlockNumber",
              "type": "uint32"
            },
            {
              "internalType": "uint64",
              "name": "handlerCount",
              "type": "uint64"
            },
            {
              "internalType": "address[]",
              "name": "handlerList",
              "type": "address[]"
            },
            {
              "internalType": "bytes[]",
              "name": "handlerArgsList",
              "type": "bytes[]"
            },
            {
              "internalType": "address",
              "name": "snippet",
              "type": "address"
            }
          ],
          "internalType": "struct Rule.Rule[]",
          "name": "ruleList",
          "type": "tuple[]"
        }
      ],
      "name": "updateHandlerList",
      "outputs": [],
      "stateMutability": "nonpayable",
      "type": "function"
    },
    {
      "inputs": [],
      "name": "version",
      "outputs": [
        {
          "internalType": "uint256",
          "name": "",
          "type": "uint256"
        }
      ],
      "stateMutability": "pure",
      "type": "function"
    },
    {
      "stateMutability": "payable",
      "type": "receive"
    }
  ],
  "bytecode": "0x608060405234801561001057600080fd5b50612ba9806100206000396000f3fe6080604052600436106101a65760003560e01c80637eb4dd0e116100e2578063a79f571011610085578063a79f5710146104fa578063b137161c1461051a578063c13ae5bb14610550578063c9d4623f14610570578063f2fde38b14610590578063f8c8765e146105b0578063f8e3378b146105d0578063fe02c916146105f057600080fd5b80637eb4dd0e146103ef57806388d52ef71461041c5780638bfe328a1461043c5780638da5cb5b1461045c5780638fae36851461047a578063921485d41461049a57806396997dff146104ba578063a5d5743e146104da57600080fd5b80634386f3721161014a5780634386f372146102f257806354fd4d501461031257806359c3f3e01461032e578063640ac7b21461034e5780636741fad21461037e578063715018a61461039c578063793b5757146103b15780637d6bbee7146103cf57600080fd5b8062b91830146101b257806305957706146101ef57806308536bfd1461020d578063089fe6aa1461022b5780630e830e491461024b57806334c76b251461026d57806340c8c1a2146102b25780634208f35d146102d257600080fd5b366101ad57005b600080fd5b3480156101be57600080fd5b506101d26101cd3660046115b4565b610610565b6040516001600160a01b0390911681526020015b60405180910390f35b3480156101fb57600080fd5b506068546001600160a01b03166101d2565b34801561021957600080fd5b506065546001600160a01b03166101d2565b34801561023757600080fd5b506067546101d2906001600160a01b031681565b34801561025757600080fd5b5061026b6102663660046115fb565b610648565b005b34801561027957600080fd5b50604080518082018252601681527521b63ab9ba32b9293ab632a0b932b0a430b7323632b960511b602082015290516101e6919061166c565b3480156102be57600080fd5b506101d26102cd3660046116a5565b610672565b3480156102de57600080fd5b5061026b6102ed366004611aee565b6106c1565b3480156102fe57600080fd5b506101d261030d366004611b3b565b610a41565b34801561031e57600080fd5b50604051600181526020016101e6565b34801561033a57600080fd5b5061026b6103493660046115fb565b610a5d565b34801561035a57600080fd5b5061036e610369366004611b65565b610a87565b60405190151581526020016101e6565b34801561038a57600080fd5b506067546001600160a01b03166101d2565b3480156103a857600080fd5b5061026b610c0b565b3480156103bd57600080fd5b506066546001600160a01b03166101d2565b3480156103db57600080fd5b506101d26103ea3660046115b4565b610c1f565b3480156103fb57600080fd5b5061040f61040a3660046116a5565b610c3b565b6040516101e69190611bf5565b34801561042857600080fd5b506066546101d2906001600160a01b031681565b34801561044857600080fd5b5061040f610457366004611c42565b610cd4565b34801561046857600080fd5b506033546001600160a01b03166101d2565b34801561048657600080fd5b506065546101d2906001600160a01b031681565b3480156104a657600080fd5b5061040f6104b53660046116a5565b610d47565b3480156104c657600080fd5b506101d26104d5366004611b3b565b610dde565b3480156104e657600080fd5b506101d26104f53660046115b4565b610dfa565b34801561050657600080fd5b5061040f6105153660046116a5565b610e16565b34801561052657600080fd5b506101d2610535366004611c5d565b606e602052600090815260409020546001600160a01b031681565b34801561055c57600080fd5b5061026b61056b3660046120f0565b610ead565b34801561057c57600080fd5b506068546101d2906001600160a01b031681565b34801561059c57600080fd5b5061026b6105ab3660046115fb565b6111bc565b3480156105bc57600080fd5b5061026b6105cb3660046122a3565b611235565b3480156105dc57600080fd5b5061040f6105eb366004611c42565b61139c565b3480156105fc57600080fd5b5061026b61060b3660046115fb565b61140d565b606b602052816000526040600020818154811061062c57600080fd5b6000918252602090912001546001600160a01b03169150829050565b610650611437565b606880546001600160a01b0319166001600160a01b0392909216919091179055565b60008084848460405160200161068a939291906122ff565b60408051808303601f1901815291815281516020928301206000908152606e9092529020546001600160a01b031695945050505050565b60005a6065546040516378d0973360e11b81529192506001600160a01b03169063f1a12e66906106fa9086906002903390600401612321565b60206040518083038186803b15801561071257600080fd5b505afa158015610726573d6000803e3d6000fd5b505050506040513d601f19601f8201168201806040525081019061074a919061234b565b6107b85760405162461bcd60e51b815260206004820152603460248201527f75706461746548616e646c65724c697374205f6d736753656e6465722829206d6044820152733ab9ba1031b63ab9ba32b9103232b83637bcb2b960611b60648201526084015b60405180910390fd5b60005b825181101561095c5760008382815181106107d8576107d861236d565b60209081029190910101516065546040516310b2db3960e01b81529192506000918291829173__$37d1e3923919c704bdb48c10208c7fa215$__916310b2db3991610833916001600160a01b0316908c908990600401612529565b60006040518083038186803b15801561084b57600080fd5b505af415801561085f573d6000803e3d6000fd5b505050506040513d6000823e601f3d908101601f1916820160405261088791908101906125c6565b925092509250600088856000015186602001516040516020016108ac939291906122ff565b604051602081830303815290604052805190602001209050835160001415806108d55750825115155b806108e05750815115155b15610946576000818152606b6020908152604090912085516109049287019061153a565b506000818152606c6020908152604090912084516109249286019061153a565b506000818152606d6020908152604090912083516109449285019061153a565b505b50505050508061095590612663565b90506107bb565b5063ffffffff831660063360408051600080825260208201526001600160a01b0392909216917f406f08281ef32e80b86c370ad8090aee112196e34227b1778131d72bfc2af040910160405180910390a460005a6109ba908361267e565b60675460405163163ce46160e01b81526001600160a01b039091166004820152602481018290526006604482015290915073__$37d1e3923919c704bdb48c10208c7fa215$__9063163ce461906064015b60006040518083038186803b158015610a2357600080fd5b505af4158015610a37573d6000803e3d6000fd5b5050505050505050565b606a602052816000526040600020818154811061062c57600080fd5b610a65611437565b606680546001600160a01b0319166001600160a01b0392909216919091179055565b6065546040516378d0973360e11b81526000916001600160a01b03169063f1a12e6690610abd908a906001903390600401612321565b60206040518083038186803b158015610ad557600080fd5b505afa158015610ae9573d6000803e3d6000fd5b505050506040513d601f19601f82011682018060405250810190610b0d919061234b565b610b775760405162461bcd60e51b815260206004820152603560248201527f75706461746548616e646c657241726773206e6f742061646d696e206f722063604482015274363ab9ba32b9293ab632a0b932b0a430b7323632b960591b60648201526084016107af565b604051631b6aebc160e21b81526001600160a01b03841690636dabaf0490610bab908a908a908a908a908990600401612695565b602060405180830381600087803b158015610bc557600080fd5b505af1158015610bd9573d6000803e3d6000fd5b505050506040513d601f19601f82011682018060405250810190610bfd919061234b565b506001979650505050505050565b610c13611437565b610c1d6000611491565b565b606c602052816000526040600020818154811061062c57600080fd5b60606000848484604051602001610c54939291906122ff565b60408051601f1981840301815282825280516020918201206000818152606d83528390208054808402860184019094528385529094509190830182828015610cc557602002820191906000526020600020905b81546001600160a01b03168152600190910190602001808311610ca7575b50505050509150509392505050565b63ffffffff81166000908152606a6020908152604091829020805483518184028101840190945280845260609392830182828015610d3b57602002820191906000526020600020905b81546001600160a01b03168152600190910190602001808311610d1d575b50505050509050919050565b60606000848484604051602001610d60939291906122ff565b60408051601f1981840301815282825280516020918201206000818152606c83528390208054808402860184019094528385529094509190830182828015610cc5576020028201919060005260206000209081546001600160a01b03168152600190910190602001808311610ca75750505050509150509392505050565b6069602052816000526040600020818154811061062c57600080fd5b606d602052816000526040600020818154811061062c57600080fd5b60606000848484604051602001610e2f939291906122ff565b60408051601f1981840301815282825280516020918201206000818152606b83528390208054808402860184019094528385529094509190830182828015610cc5576020028201919060005260206000209081546001600160a01b03168152600190910190602001808311610ca75750505050509150509392505050565b6065546001600160a01b03163314610f195760405162461bcd60e51b815260206004820152602960248201527f63616c6c20726567697374657248616e646c65724c697374206d75737420636c60448201526875737465724172656160b81b60648201526084016107af565b63ffffffff82166000908152606960209081526040808320606a909252822090915b83604001515181101561117157600084604001518281518110610f6057610f6061236d565b6020026020010151905060008682600001518360200151604051602001610f89939291906122ff565b60408051808303601f1901815282825280516020918201206101408601516000828152606e90935292822080546001600160a01b0319166001600160a01b039485161790556065546310b2db3960e01b855290945090928392839273__$37d1e3923919c704bdb48c10208c7fa215$__926310b2db39926110129216908e908a90600401612529565b60006040518083038186803b15801561102a57600080fd5b505af415801561103e573d6000803e3d6000fd5b505050506040513d6000823e601f3d908101601f1916820160405261106691908101906125c6565b9250925092508251600014158061107d5750815115155b806110885750805115155b1561115b576000848152606b6020908152604090912084516110ac9286019061153a565b506000848152606c6020908152604090912083516110cc9285019061153a565b506000848152606d6020908152604090912082516110ec9284019061153a565b50604051635c8e413160e11b815273__$37d1e3923919c704bdb48c10208c7fa215$__9063b91c82629061112a908d9089908d908d906004016126dc565b60006040518083038186803b15801561114257600080fd5b505af4158015611156573d6000803e3d6000fd5b505050505b50505050508061116a90612663565b9050610f3b565b50606554604051630b0c57e960e31b815273__$37d1e3923919c704bdb48c10208c7fa215$__91635862bf4891610a0b916001600160a01b03169088908890889088906004016129d0565b6111c4611437565b6001600160a01b0381166112295760405162461bcd60e51b815260206004820152602660248201527f4f776e61626c653a206e6577206f776e657220697320746865207a65726f206160448201526564647265737360d01b60648201526084016107af565b61123281611491565b50565b600054610100900460ff16158080156112555750600054600160ff909116105b8061126f5750303b15801561126f575060005460ff166001145b6112d25760405162461bcd60e51b815260206004820152602e60248201527f496e697469616c697a61626c653a20636f6e747261637420697320616c72656160448201526d191e481a5b9a5d1a585b1a5e995960921b60648201526084016107af565b6000805460ff1916600117905580156112f5576000805461ff0019166101001790555b6112fd6114e3565b61130561150a565b606580546001600160a01b038088166001600160a01b031992831617909255606680548784169083161790556067805486841690831617905560688054928516929091169190911790558015611395576000805461ff0019169055604051600181527f7f26b83ff96e1f2b6a682f133852f6798a09c465da95921460cefb38474024989060200160405180910390a15b5050505050565b63ffffffff8116600090815260696020908152604091829020805483518184028101840190945280845260609392830182828015610d3b576020028201919060005260206000209081546001600160a01b03168152600190910190602001808311610d1d5750505050509050919050565b611415611437565b606580546001600160a01b0319166001600160a01b0392909216919091179055565b6033546001600160a01b03163314610c1d5760405162461bcd60e51b815260206004820181905260248201527f4f776e61626c653a2063616c6c6572206973206e6f7420746865206f776e657260448201526064016107af565b603380546001600160a01b038381166001600160a01b0319831681179093556040519116919082907f8be0079c531659141344cd1fd0a4f28419497f9722a3daafe3b4186f6b6457e090600090a35050565b600054610100900460ff16610c1d5760405162461bcd60e51b81526004016107af90612b28565b600054610100900460ff166115315760405162461bcd60e51b81526004016107af90612b28565b610c1d33611491565b82805482825590600052602060002090810192821561158f579160200282015b8281111561158f57825182546001600160a01b0319166001600160a01b0390911617825560209092019160019091019061155a565b5061159b92915061159f565b5090565b5b8082111561159b57600081556001016115a0565b600080604083850312156115c757600080fd5b50508035926020909101359150565b6001600160a01b038116811461123257600080fd5b80356115f6816115d6565b919050565b60006020828403121561160d57600080fd5b8135611618816115d6565b9392505050565b6000815180845260005b8181101561164557602081850181015186830182015201611629565b81811115611657576000602083870101525b50601f01601f19169290920160200192915050565b602081526000611618602083018461161f565b803563ffffffff811681146115f657600080fd5b803561ffff811681146115f657600080fd5b6000806000606084860312156116ba57600080fd5b6116c38461167f565b92506116d160208501611693565b91506116df60408501611693565b90509250925092565b634e487b7160e01b600052604160045260246000fd5b60405161016081016001600160401b0381118282101715611721576117216116e8565b60405290565b604051608081016001600160401b0381118282101715611721576117216116e8565b604051606081016001600160401b0381118282101715611721576117216116e8565b60405160a081016001600160401b0381118282101715611721576117216116e8565b604051601f8201601f191681016001600160401b03811182821017156117b5576117b56116e8565b604052919050565b60006001600160401b038211156117d6576117d66116e8565b5060051b60200190565b803560ff811681146115f657600080fd5b80356001600160401b03811681146115f657600080fd5b600082601f83011261181957600080fd5b8135602061182e611829836117bd565b61178d565b82815260059290921b8401810191818101908684111561184d57600080fd5b8286015b84811015611871578035611864816115d6565b8352918301918301611851565b509695505050505050565b600082601f83011261188d57600080fd5b81356001600160401b038111156118a6576118a66116e8565b6118b9601f8201601f191660200161178d565b8181528460208386010111156118ce57600080fd5b816020850160208301376000918101602001919091529392505050565b600082601f8301126118fc57600080fd5b8135602061190c611829836117bd565b82815260059290921b8401810191818101908684111561192b57600080fd5b8286015b848110156118715780356001600160401b0381111561194e5760008081fd5b61195c8986838b010161187c565b84525091830191830161192f565b600082601f83011261197b57600080fd5b8135602061198b611829836117bd565b82815260059290921b840181019181810190868411156119aa57600080fd5b8286015b848110156118715780356001600160401b03808211156119ce5760008081fd5b90880190610160828b03601f19018113156119e95760008081fd5b6119f16116fe565b6119fc888501611693565b81526040611a0b818601611693565b898301526060611a1c8187016117e0565b8284015260809150611a2f82870161167f565b9083015260a0611a408682016117e0565b8284015260c09150611a5382870161167f565b9083015260e0611a6486820161167f565b828401526101009150611a788287016117f1565b908301526101208581013585811115611a915760008081fd5b611a9f8f8c838a0101611808565b838501525061014091508186013585811115611abb5760008081fd5b611ac98f8c838a01016118eb565b828501525050611ada8386016115eb565b9082015286525050509183019183016119ae565b60008060408385031215611b0157600080fd5b611b0a8361167f565b915060208301356001600160401b03811115611b2557600080fd5b611b318582860161196a565b9150509250929050565b60008060408385031215611b4e57600080fd5b611b578361167f565b946020939093013593505050565b60008060008060008060c08789031215611b7e57600080fd5b611b878761167f565b9550611b9560208801611693565b9450611ba360408801611693565b9350611bb1606088016117e0565b92506080870135611bc1816115d6565b915060a08701356001600160401b03811115611bdc57600080fd5b611be889828a0161187c565b9150509295509295509295565b6020808252825182820181905260009190848201906040850190845b81811015611c365783516001600160a01b031683529284019291840191600101611c11565b50909695505050505050565b600060208284031215611c5457600080fd5b6116188261167f565b600060208284031215611c6f57600080fd5b5035919050565b600082601f830112611c8757600080fd5b81356020611c97611829836117bd565b82815260059290921b84018101918181019086841115611cb657600080fd5b8286015b848110156118715780358352918301918301611cba565b600082601f830112611ce257600080fd5b81356020611cf2611829836117bd565b82815260059290921b84018101918181019086841115611d1157600080fd5b8286015b848110156118715780356001600160401b0380821115611d3457600080fd5b90880190601f196080838c0382011215611d4d57600080fd5b611d55611727565b8784013583811115611d6657600080fd5b84016060818e0384011215611d7a57600080fd5b611d82611749565b9250611d8f8982016117e0565b8352604080820135611da0816115d6565b848b0152606082013585811115611db657600080fd5b611dc48f8c83860101611c76565b8286015250838352611dd78187016117e0565b8a8401526060860135935084841115611def57600080fd5b611dfd8e8b86890101611808565b90830152506080840135915082821115611e1657600080fd5b611e248c8984870101611c76565b60608201528652505050918301918301611d15565b600082601f830112611e4a57600080fd5b81356020611e5a611829836117bd565b82815260059290921b84018101918181019086841115611e7957600080fd5b8286015b848110156118715780356001600160401b0380821115611e9d5760008081fd5b9088019060a0828b03601f1901811315611eb75760008081fd5b611ebf61176b565b8784013583811115611ed15760008081fd5b611edf8d8a83880101611cd1565b8252506040611eef8186016117e0565b898301526060611f008187016115eb565b82840152608091508186013585811115611f1a5760008081fd5b611f288f8c838a0101611808565b82850152505082850135925083831115611f425760008081fd5b611f508d8a858801016118eb565b908201528652505050918301918301611e7d565b600082601f830112611f7557600080fd5b81356020611f85611829836117bd565b82815260059290921b84018101918181019086841115611fa457600080fd5b8286015b8481101561187157611fb9816117e0565b8352918301918301611fa8565b600082601f830112611fd757600080fd5b81356020611fe7611829836117bd565b82815260059290921b8401810191818101908684111561200657600080fd5b8286015b848110156118715780356001600160401b038082111561202a5760008081fd5b9088019060a0828b03601f19018113156120445760008081fd5b61204c61176b565b61205788850161167f565b81526040808501358481111561206d5760008081fd5b61207b8e8b8389010161187c565b8a84015250606080860135858111156120945760008081fd5b6120a28f8c838a010161187c565b83850152506080915081860135858111156120bd5760008081fd5b6120cb8f8c838a010161187c565b8285015250506120dc8386016117e0565b90820152865250505091830191830161200a565b6000806040838503121561210357600080fd5b61210c8361167f565b915060208301356001600160401b038082111561212857600080fd5b90840190610160828703121561213d57600080fd5b6121456116fe565b82358281111561215457600080fd5b61216088828601611e39565b82525060208301358281111561217557600080fd5b61218188828601611f64565b60208301525060408301358281111561219957600080fd5b6121a58882860161196a565b6040830152506060830135828111156121bd57600080fd5b6121c988828601611fc6565b6060830152506080830135828111156121e157600080fd5b6121ed88828601611f64565b60808301525060a08301358281111561220557600080fd5b61221188828601611808565b60a08301525060c08301358281111561222957600080fd5b61223588828601611808565b60c08301525061224760e0840161167f565b60e082015261010061225a81850161167f565b9082015261012061226c8482016117e0565b90820152610140838101358381111561228457600080fd5b6122908982870161187c565b8284015250508093505050509250929050565b600080600080608085870312156122b957600080fd5b84356122c4816115d6565b935060208501356122d4816115d6565b925060408501356122e4816115d6565b915060608501356122f4816115d6565b939692955090935050565b63ffffffff93909316835261ffff918216602084015216604082015260600190565b63ffffffff93909316835260ff9190911660208301526001600160a01b0316604082015260600190565b60006020828403121561235d57600080fd5b8151801515811461161857600080fd5b634e487b7160e01b600052603260045260246000fd5b600081518084526020808501945080840160005b838110156123bc5781516001600160a01b031687529582019590820190600101612397565b509495945050505050565b600081518084526020808501808196508360051b8101915082860160005b8581101561240f5782840389526123fd84835161161f565b988501989350908401906001016123e5565b5091979650505050505050565b805161ffff1682526000610160602083015161243e602086018261ffff169052565b506040830151612453604086018260ff169052565b50606083015161246b606086018263ffffffff169052565b506080830151612480608086018260ff169052565b5060a083015161249860a086018263ffffffff169052565b5060c08301516124b060c086018263ffffffff169052565b5060e08301516124cb60e08601826001600160401b03169052565b506101008084015182828701526124e483870182612383565b92505050610120808401518583038287015261250083826123c7565b925050506101408084015161251f828701826001600160a01b03169052565b5090949350505050565b6001600160a01b038416815263ffffffff831660208201526060604082018190526000906125599083018461241c565b95945050505050565b600082601f83011261257357600080fd5b81516020612583611829836117bd565b82815260059290921b840181019181810190868411156125a257600080fd5b8286015b848110156118715780516125b9816115d6565b83529183019183016125a6565b6000806000606084860312156125db57600080fd5b83516001600160401b03808211156125f257600080fd5b6125fe87838801612562565b9450602086015191508082111561261457600080fd5b61262087838801612562565b9350604086015191508082111561263657600080fd5b5061264386828701612562565b9150509250925092565b634e487b7160e01b600052601160045260246000fd5b60006000198214156126775761267761264d565b5060010190565b6000828210156126905761269061264d565b500390565b63ffffffff86168152600061ffff808716602084015280861660408401525060ff8416606083015260a060808301526126d160a083018461161f565b979650505050505050565b63ffffffff851681526080602082015260006126fb608083018661241c565b6040830194909452506060015292915050565b600081518084526020808501945080840160005b838110156123bc57815187529582019590820190600101612722565b600081518084526020808501808196508360051b8101915082860160005b8581101561240f5782840389528151805160a0808752815190870181905260c0600582901b88018101928901919088019060005b8181101561283a5789850360bf19018352835180516080808852815160ff16908801528c8101516001600160a01b031660a088015260400151606060c088018190526127df60e089018361270e565b91508d8301516127f38f8a018260ff169052565b50604083015188830360408a015261280b8382612383565b9250508083015192508782038189015250612826818361270e565b96505050928a0192918a0191600101612790565b505050508187015160ff81168789015250604082015161286560408801826001600160a01b03169052565b506060820151868203606088015261287d8282612383565b91505060808201519150858103608087015261289981836123c7565b9a87019a955050509084019060010161275c565b600081518084526020808501945080840160005b838110156123bc57815160ff16875295820195908201906001016128c1565b600081518084526020808501808196508360051b8101915082860160005b8581101561240f57828403895261291684835161241c565b988501989350908401906001016128fe565b600081518084526020808501808196508360051b8101915082860160005b8581101561240f578284038952815160a063ffffffff82511686528682015181888801526129768288018261161f565b91505060408083015187830382890152612990838261161f565b92505050606080830151878303828901526129ab838261161f565b60809485015160ff169890940197909752505098850198935090840190600101612946565b60018060a01b038616815263ffffffff8516602082015260a06040820152600084516101608060a0850152612a0961020085018361273e565b91506020870151609f19808685030160c0870152612a2784836128ad565b935060408901519150808685030160e0870152612a4484836128e0565b935060608901519150610100818786030181880152612a638584612928565b945060808a01519250610120828887030181890152612a8286856128ad565b955060a08b015193506101408389880301818a0152612aa18786612383565b965060c08c015194508389880301868a0152612abd8786612383565b965060e08c01519550612ad96101808a018763ffffffff169052565b918b015163ffffffff166101a08901528a015160ff166101c08801528901518685039091016101e08701529150612b129050828261161f565b6060850196909652505050608001529392505050565b6020808252602b908201527f496e697469616c697a61626c653a20636f6e7472616374206973206e6f74206960408201526a6e697469616c697a696e6760a81b60608201526080019056fea264697066735822122016b86a6ae38e5a32031e671d513d8f23d3f644615febf2ec5a5456197c235c7164736f6c63430008080033",
  "linkReferences": {
    "contracts/V3/ClusterRuleAreaProcess.sol": {
      "ClusterRuleAreaProcess": [
        {
          "length": 20,
          "start": 2079
        },
        {
          "length": 20,
          "start": 2573
        },
        {
          "length": 20,
          "start": 4102
        },
        {
          "length": 20,
          "start": 4380
        },
        {
          "length": 20,
          "start": 4516
        }
      ]
    }
  },
  "deployedLinkReferences": {
    "contracts/V3/ClusterRuleAreaProcess.sol": {
      "ClusterRuleAreaProcess": [
        {
          "length": 20,
          "start": 2047
        },
        {
          "length": 20,
          "start": 2541
        },
        {
          "length": 20,
          "start": 4070
        },
        {
          "length": 20,
          "start": 4348
        },
        {
          "length": 20,
          "start": 4484
        }
      ]
    }
  }
}