{
  "_format": "hh-sol-artifact-1",
  "contractName": "ClusterAttributeAreaToken",
  "sourceName": "contracts/V3/ClusterAttributeAreaToken.sol",
  "abi": [
    {
      "anonymous": false,
      "inputs": [
        {
          "indexed": false,
          "internalType": "uint8",
          "name": "version",
          "type": "uint8"
        }
      ],
      "name": "Initialized",
      "type": "event"
    },
    {
      "anonymous": false,
      "inputs": [
        {
          "indexed": true,
          "internalType": "address",
          "name": "previousOwner",
          "type": "address"
        },
        {
          "indexed": true,
          "internalType": "address",
          "name": "newOwner",
          "type": "address"
        }
      ],
      "name": "OwnershipTransferred",
      "type": "event"
    },
    {
      "anonymous": false,
      "inputs": [
        {
          "indexed": false,
          "internalType": "uint32",
          "name": "clusterId",
          "type": "uint32"
        },
        {
          "indexed": false,
          "internalType": "uint32",
          "name": "attrId",
          "type": "uint32"
        }
      ],
      "name": "SetClusterAttr",
      "type": "event"
    },
    {
      "anonymous": false,
      "inputs": [
        {
          "indexed": false,
          "internalType": "address",
          "name": "token",
          "type": "address"
        },
        {
          "indexed": false,
          "internalType": "uint32",
          "name": "attrId",
          "type": "uint32"
        }
      ],
      "name": "SetTokenAttr",
      "type": "event"
    },
    {
      "inputs": [],
      "name": "cname",
      "outputs": [
        {
          "internalType": "string",
          "name": "",
          "type": "string"
        }
      ],
      "stateMutability": "pure",
      "type": "function"
    },
    {
      "inputs": [
        {
          "internalType": "uint32",
          "name": "clusterId",
          "type": "uint32"
        },
        {
          "internalType": "address",
          "name": "token",
          "type": "address"
        },
        {
          "internalType": "uint256",
          "name": "tokenId",
          "type": "uint256"
        }
      ],
      "name": "getClusterTokenAttrIdList",
      "outputs": [
        {
          "internalType": "uint32[]",
          "name": "",
          "type": "uint32[]"
        }
      ],
      "stateMutability": "view",
      "type": "function"
    },
    {
      "inputs": [
        {
          "internalType": "uint32",
          "name": "clusterId",
          "type": "uint32"
        },
        {
          "internalType": "address",
          "name": "token",
          "type": "address"
        },
        {
          "internalType": "uint256",
          "name": "tokenId",
          "type": "uint256"
        },
        {
          "internalType": "uint32",
          "name": "parentAttrId",
          "type": "uint32"
        },
        {
          "internalType": "uint32",
          "name": "attrId",
          "type": "uint32"
        }
      ],
      "name": "getClusterTokenAttrOpt",
      "outputs": [
        {
          "components": [
            {
              "internalType": "uint32",
              "name": "attrId",
              "type": "uint32"
            },
            {
              "internalType": "uint8",
              "name": "attrOpt",
              "type": "uint8"
            },
            {
              "internalType": "uint8",
              "name": "attrType",
              "type": "uint8"
            },
            {
              "internalType": "int40",
              "name": "attrAmount",
              "type": "int40"
            },
            {
              "internalType": "int40",
              "name": "attrAmountMin",
              "type": "int40"
            },
            {
              "internalType": "int40",
              "name": "attrAmountMax",
              "type": "int40"
            },
            {
              "internalType": "string",
              "name": "attrText",
              "type": "string"
            },
            {
              "internalType": "uint32",
              "name": "parentAttrId",
              "type": "uint32"
            },
            {
              "internalType": "uint8",
              "name": "attrState",
              "type": "uint8"
            },
            {
              "internalType": "bytes4",
              "name": "attrFormula",
              "type": "bytes4"
            }
          ],
          "internalType": "struct Attribute.AttributeOptEx",
          "name": "",
          "type": "tuple"
        }
      ],
      "stateMutability": "view",
      "type": "function"
    },
    {
      "inputs": [
        {
          "internalType": "uint32",
          "name": "clusterId",
          "type": "uint32"
        },
        {
          "internalType": "address",
          "name": "token",
          "type": "address"
        },
        {
          "internalType": "uint256",
          "name": "tokenId",
          "type": "uint256"
        },
        {
          "internalType": "uint32",
          "name": "attrId",
          "type": "uint32"
        }
      ],
      "name": "getClusterTokenSubAttrIdList",
      "outputs": [
        {
          "internalType": "uint32[]",
          "name": "",
          "type": "uint32[]"
        }
      ],
      "stateMutability": "view",
      "type": "function"
    },
    {
      "inputs": [
        {
          "internalType": "address",
          "name": "clusterArea_",
          "type": "address"
        },
        {
          "internalType": "address",
          "name": "poolContract_",
          "type": "address"
        },
        {
          "internalType": "address",
          "name": "engine_",
          "type": "address"
        },
        {
          "internalType": "address",
          "name": "clusterAttributeArea_",
          "type": "address"
        }
      ],
      "name": "initialize",
      "outputs": [],
      "stateMutability": "nonpayable",
      "type": "function"
    },
    {
      "inputs": [],
      "name": "owner",
      "outputs": [
        {
          "internalType": "address",
          "name": "",
          "type": "address"
        }
      ],
      "stateMutability": "view",
      "type": "function"
    },
    {
      "inputs": [],
      "name": "renounceOwnership",
      "outputs": [],
      "stateMutability": "nonpayable",
      "type": "function"
    },
    {
      "inputs": [
        {
          "internalType": "bytes32",
          "name": "",
          "type": "bytes32"
        }
      ],
      "name": "tokenAttributeAmount",
      "outputs": [
        {
          "internalType": "int40",
          "name": "",
          "type": "int40"
        }
      ],
      "stateMutability": "view",
      "type": "function"
    },
    {
      "inputs": [
        {
          "internalType": "bytes32",
          "name": "",
          "type": "bytes32"
        }
      ],
      "name": "tokenAttributeAmountMax",
      "outputs": [
        {
          "internalType": "int40",
          "name": "",
          "type": "int40"
        }
      ],
      "stateMutability": "view",
      "type": "function"
    },
    {
      "inputs": [
        {
          "internalType": "bytes32",
          "name": "",
          "type": "bytes32"
        }
      ],
      "name": "tokenAttributeAmountMin",
      "outputs": [
        {
          "internalType": "int40",
          "name": "",
          "type": "int40"
        }
      ],
      "stateMutability": "view",
      "type": "function"
    },
    {
      "inputs": [
        {
          "internalType": "bytes32",
          "name": "",
          "type": "bytes32"
        },
        {
          "internalType": "uint256",
          "name": "",
          "type": "uint256"
        }
      ],
      "name": "tokenAttributeIdList",
      "outputs": [
        {
          "internalType": "uint32",
          "name": "",
          "type": "uint32"
        }
      ],
      "stateMutability": "view",
      "type": "function"
    },
    {
      "inputs": [
        {
          "internalType": "bytes32",
          "name": "",
          "type": "bytes32"
        }
      ],
      "name": "tokenAttributeState",
      "outputs": [
        {
          "internalType": "uint8",
          "name": "",
          "type": "uint8"
        }
      ],
      "stateMutability": "view",
      "type": "function"
    },
    {
      "inputs": [
        {
          "internalType": "bytes32",
          "name": "",
          "type": "bytes32"
        }
      ],
      "name": "tokenAttributeText",
      "outputs": [
        {
          "internalType": "string",
          "name": "",
          "type": "string"
        }
      ],
      "stateMutability": "view",
      "type": "function"
    },
    {
      "inputs": [
        {
          "internalType": "bytes32",
          "name": "",
          "type": "bytes32"
        }
      ],
      "name": "tokenAttributeType",
      "outputs": [
        {
          "internalType": "uint8",
          "name": "",
          "type": "uint8"
        }
      ],
      "stateMutability": "view",
      "type": "function"
    },
    {
      "inputs": [
        {
          "internalType": "bytes32",
          "name": "",
          "type": "bytes32"
        },
        {
          "internalType": "uint256",
          "name": "",
          "type": "uint256"
        }
      ],
      "name": "tokenSubAttributeIdList",
      "outputs": [
        {
          "internalType": "uint32",
          "name": "",
          "type": "uint32"
        }
      ],
      "stateMutability": "view",
      "type": "function"
    },
    {
      "inputs": [
        {
          "internalType": "address",
          "name": "newOwner",
          "type": "address"
        }
      ],
      "name": "transferOwnership",
      "outputs": [],
      "stateMutability": "nonpayable",
      "type": "function"
    },
    {
      "inputs": [
        {
          "internalType": "uint32",
          "name": "clusterId",
          "type": "uint32"
        },
        {
          "components": [
            {
              "internalType": "address",
              "name": "token",
              "type": "address"
            },
            {
              "internalType": "uint8",
              "name": "erc",
              "type": "uint8"
            },
            {
              "internalType": "uint256",
              "name": "tokenId",
              "type": "uint256"
            },
            {
              "components": [
                {
                  "internalType": "uint32",
                  "name": "attrId",
                  "type": "uint32"
                },
                {
                  "internalType": "uint8",
                  "name": "attrOpt",
                  "type": "uint8"
                },
                {
                  "internalType": "uint8",
                  "name": "attrType",
                  "type": "uint8"
                },
                {
                  "internalType": "int40",
                  "name": "attrAmount",
                  "type": "int40"
                },
                {
                  "internalType": "string",
                  "name": "attrText",
                  "type": "string"
                },
                {
                  "internalType": "uint32",
                  "name": "parentAttrId",
                  "type": "uint32"
                },
                {
                  "internalType": "uint8",
                  "name": "attrState",
                  "type": "uint8"
                },
                {
                  "internalType": "bytes4",
                  "name": "attrFormula",
                  "type": "bytes4"
                }
              ],
              "internalType": "struct Attribute.AttributeOpt[]",
              "name": "attributeOptList",
              "type": "tuple[]"
            }
          ],
          "internalType": "struct Attribute.TokenAttributeList[]",
          "name": "tokenAttrList",
          "type": "tuple[]"
        }
      ],
      "name": "updateClusterTokenIdAttrList",
      "outputs": [],
      "stateMutability": "nonpayable",
      "type": "function"
    },
    {
      "inputs": [
        {
          "internalType": "address",
          "name": "caller",
          "type": "address"
        },
        {
          "internalType": "uint32",
          "name": "clusterId",
          "type": "uint32"
        },
        {
          "components": [
            {
              "internalType": "address",
              "name": "token",
              "type": "address"
            },
            {
              "internalType": "uint8",
              "name": "erc",
              "type": "uint8"
            },
            {
              "internalType": "uint256",
              "name": "tokenId",
              "type": "uint256"
            },
            {
              "components": [
                {
                  "internalType": "uint32",
                  "name": "attrId",
                  "type": "uint32"
                },
                {
                  "internalType": "uint8",
                  "name": "attrOpt",
                  "type": "uint8"
                },
                {
                  "internalType": "uint8",
                  "name": "attrType",
                  "type": "uint8"
                },
                {
                  "internalType": "int40",
                  "name": "attrAmount",
                  "type": "int40"
                },
                {
                  "internalType": "string",
                  "name": "attrText",
                  "type": "string"
                },
                {
                  "internalType": "uint32",
                  "name": "parentAttrId",
                  "type": "uint32"
                },
                {
                  "internalType": "uint8",
                  "name": "attrState",
                  "type": "uint8"
                },
                {
                  "internalType": "bytes4",
                  "name": "attrFormula",
                  "type": "bytes4"
                }
              ],
              "internalType": "struct Attribute.AttributeOpt[]",
              "name": "attributeOptList",
              "type": "tuple[]"
            }
          ],
          "internalType": "struct Attribute.TokenAttributeList",
          "name": "tokenAttrList",
          "type": "tuple"
        }
      ],
      "name": "updateClusterTokenIdOptAttrList",
      "outputs": [],
      "stateMutability": "nonpayable",
      "type": "function"
    },
    {
      "inputs": [
        {
          "internalType": "address",
          "name": "caller",
          "type": "address"
        },
        {
          "components": [
            {
              "internalType": "address",
              "name": "token",
              "type": "address"
            },
            {
              "internalType": "uint8",
              "name": "erc",
              "type": "uint8"
            },
            {
              "internalType": "uint256",
              "name": "tokenId",
              "type": "uint256"
            },
            {
              "components": [
                {
                  "internalType": "uint32",
                  "name": "attrId",
                  "type": "uint32"
                },
                {
                  "internalType": "uint8",
                  "name": "attrOpt",
                  "type": "uint8"
                },
                {
                  "internalType": "uint8",
                  "name": "attrType",
                  "type": "uint8"
                },
                {
                  "internalType": "int40",
                  "name": "attrAmount",
                  "type": "int40"
                },
                {
                  "internalType": "string",
                  "name": "attrText",
                  "type": "string"
                },
                {
                  "internalType": "uint32",
                  "name": "parentAttrId",
                  "type": "uint32"
                },
                {
                  "internalType": "uint8",
                  "name": "attrState",
                  "type": "uint8"
                },
                {
                  "internalType": "bytes4",
                  "name": "attrFormula",
                  "type": "bytes4"
                }
              ],
              "internalType": "struct Attribute.AttributeOpt[]",
              "name": "attributeOptList",
              "type": "tuple[]"
            }
          ],
          "internalType": "struct Attribute.TokenAttributeList",
          "name": "tokenAttrList",
          "type": "tuple"
        }
      ],
      "name": "updateTokenIdOptAttrList",
      "outputs": [],
      "stateMutability": "nonpayable",
      "type": "function"
    },
    {
      "inputs": [],
      "name": "version",
      "outputs": [
        {
          "internalType": "uint256",
          "name": "",
          "type": "uint256"
        }
      ],
      "stateMutability": "pure",
      "type": "function"
    }
  ],
  "bytecode": "0x608060405234801561001057600080fd5b50613949806100206000396000f3fe608060405234801561001057600080fd5b506004361061010c5760003560e01c8063715018a61161009d578063715018a61461026c57806374bbd42e146102745780637f55cbe3146102875780638da5cb5b146102aa578063c61b53f7146102c3578063cb2a77a2146102e6578063e69c7070146102f9578063f264eac514610319578063f2fde38b1461033c578063f8c8765e1461034f57600080fd5b806301a554c2146101115780630596af851461013a57806308c21f2a146101625780631a9c6415146101775780632abe18e5146101ad57806334c76b25146101c05780633f41ee02146101f557806354fd4d50146102155780635f0bdd02146102245780636a8efeb614610237575b600080fd5b61012461011f366004612d11565b610362565b6040516101319190612d82565b60405180910390f35b61014d610148366004612d9c565b6103fc565b60405163ffffffff9091168152602001610131565b6101756101703660046130f1565b610445565b005b61019a610185366004612d11565b606f6020526000908152604090205460040b81565b60405160049190910b8152602001610131565b6101756101bb366004613140565b6104cd565b60408051808201909152601981527821b63ab9ba32b920ba3a3934b13aba32a0b932b0aa37b5b2b760391b6020820152610124565b610208610203366004613203565b610bbc565b6040516101319190613242565b60405160018152602001610131565b61017561023236600461328c565b610c79565b61025a610245366004612d11565b606c6020526000908152604090205460ff1681565b60405160ff9091168152602001610131565b610175610cfe565b61014d610282366004612d9c565b610d12565b61025a610295366004612d11565b60716020526000908152604090205460ff1681565b6033546001600160a01b031660405161013191906132eb565b61019a6102d1366004612d11565b606e6020526000908152604090205460040b81565b6102086102f43660046132ff565b610d2e565b61030c61030736600461334e565b610dee565b60405161013191906133ae565b61019a610327366004612d11565b606d6020526000908152604090205460040b81565b61017561034a366004613491565b610f7e565b61017561035d3660046134ae565b610ff7565b6070602052600090815260409020805461037b9061350a565b80601f01602080910402602001604051908101604052809291908181526020018280546103a79061350a565b80156103f45780601f106103c9576101008083540402835291602001916103f4565b820191906000526020600020905b8154815290600101906020018083116103d757829003601f168201915b505050505081565b606a602052816000526040600020818154811061041857600080fd5b9060005260206000209060089182820401919006600402915091509054906101000a900463ffffffff1681565b6066546001600160a01b031633146104bd5760405162461bcd60e51b815260206004820152603060248201527f63616c6c20757064617465546f6b656e496444656c7461417474724c6973742060448201526f6d75737420636c75737465724172656160801b60648201526084015b60405180910390fd5b6104c98260008361115e565b5050565b63ffffffff8216156105da57606754604080516378d0973360e11b815263ffffffff851660048201526002602482015233604482015290516001600160a01b039092169163f1a12e6691606480820192602092909190829003018186803b15801561053757600080fd5b505afa15801561054b573d6000803e3d6000fd5b505050506040513d601f19601f8201168201806040525081019061056f9190613545565b6105da5760405162461bcd60e51b815260206004820152603660248201527f63616c6c20757064617465436c7573746572546f6b656e4964417474724c69736044820152753a1036bab9ba1031b63ab9ba32b92232b83637bcb2b960511b60648201526084016104b4565b60005b8151811015610bb75760008282815181106105fa576105fa613567565b6020026020010151905060008463ffffffff166000141561072b5761062782600001518360400151611235565b606854835160405163b9caf9d960e01b81529293506000926001600160a01b039092169163b9caf9d99161065d916004016132eb565b60206040518083038186803b15801561067557600080fd5b505afa158015610689573d6000803e3d6000fd5b505050506040513d601f19601f820116820180604052508101906106ad919061357d565b90506001600160a01b03811633146107255760405162461bcd60e51b815260206004820152603560248201527f757064617465436c7573746572546f6b656e4964417474724c6973743a206d73604482015274339739b2b73232b9103737ba103232b83637bcb2b960591b60648201526084016104b4565b50610741565b61073e8583600001518460400151611273565b90505b60005b826060015151811015610ba35760008063ffffffff881661084b57600061079086600001518760600151868151811061077f5761077f613567565b6020026020010151600001516112c1565b606954604051638c91c7a760e01b8152600481018390529192506001600160a01b031690638c91c7a79060240160206040518083038186803b1580156107d557600080fd5b505afa1580156107e9573d6000803e3d6000fd5b505050506040513d601f19601f8201168201806040525081019061080d919061359a565b9150610843866000015187604001518860600151878151811061083257610832613567565b6020026020010151600001516112ed565b925050610930565b6000610878898760600151868151811061086757610867613567565b60200260200101516000015161131d565b606954604051638c91c7a760e01b8152600481018390529192506001600160a01b031690638c91c7a79060240160206040518083038186803b1580156108bd57600080fd5b505afa1580156108d1573d6000803e3d6000fd5b505050506040513d601f19601f820116820180604052508101906108f5919061359a565b915061092c89876000015188604001518960600151888151811061091b5761091b613567565b602002602001015160000151611342565b9250505b60ff8116600114801590610948575060ff8116600214155b8015610958575060ff8116600b14155b8015610968575060ff8116600c14155b156109e05760006109c06040518060600160405280603b81526020016137f9603b91396109bb886060015187815181106109a4576109a4613567565b60200260200101516000015163ffffffff1661139a565b6113ab565b906109de5760405162461bcd60e51b81526004016104b49190612d82565b505b6000828152607160205260408120546060870151805160ff909216929186908110610a0d57610a0d613567565b602002602001015160c001519050600b60ff168260ff161415610aaf5760ff8116600c14610aaf5760405162461bcd60e51b815260206004820152604360248201527f757064617465436c7573746572546f6b656e4964417474724c697374206d757360448201527f7420656e61626c6520666f726576657220746f2064697361626c6520666f72656064820152623b32b960e91b608482015260a4016104b4565b60ff8216600c1415610b405760ff8116600b14610b405760405162461bcd60e51b815260206004820152604360248201527f757064617465436c7573746572546f6b656e4964417474724c697374206d757360448201527f742064697361626c6520666f726576657220746f20656e61626c6520666f72656064820152623b32b960e91b608482015260a4016104b4565b60ff8216600b14801590610b58575060ff8216600c14155b15610b8e57610b8e8a886000015189604001518a606001518981518110610b8157610b81613567565b60200260200101516113d7565b5050505080610b9c906135cd565b9050610744565b50505080610bb0906135cd565b90506105dd565b505050565b6060600063ffffffff8516610bdc57610bd58484611235565b9050610bea565b610be7858585611273565b90505b6000818152606a602090815260409182902080548351818402810184019094528084529091830182828015610c6a57602002820191906000526020600020906000905b82829054906101000a900463ffffffff1663ffffffff1681526020019060040190602082600301049283019260010382029150808411610c2d5790505b50505050509150509392505050565b6066546001600160a01b03163314610cf35760405162461bcd60e51b815260206004820152603760248201527f63616c6c20757064617465436c7573746572546f6b656e496444656c7461417460448201527674724c697374206d75737420636c75737465724172656160481b60648201526084016104b4565b610bb783838361115e565b610d066128e2565b610d10600061293c565b565b606b602052816000526040600020818154811061041857600080fd5b6060600063ffffffff8616610d4f57610d488585856112ed565b9050610d5e565b610d5b86868686611342565b90505b6000818152606b602090815260409182902080548351818402810184019094528084529091830182828015610dde57602002820191906000526020600020906000905b82829054906101000a900463ffffffff1663ffffffff1681526020019060040190602082600301049283019260010382029150808411610da15790505b5050505050915050949350505050565b610df6612bef565b600063ffffffff8416610e2c5763ffffffff8716610e2057610e198686856112ed565b9050610e53565b610e1987878786611342565b63ffffffff8716610e4357610e198686868661298e565b610e5087878787876129c6565b90505b610e5b612bef565b63ffffffff8085168252851660e082015260006020808301829052838252606c815260408083205460ff1681850152848352606d825280832054600490810b6060860152858452606e835281842054810b6080860152858452606f835281842054900b60a0850152848352607090915290208054610ed89061350a565b80601f0160208091040260200160405190810160405280929190818152602001828054610f049061350a565b8015610f515780601f10610f2657610100808354040283529160200191610f51565b820191906000526020600020905b815481529060010190602001808311610f3457829003601f168201915b505050505060c08201526000918252607160205260409091205460ff166101008201529695505050505050565b610f866128e2565b6001600160a01b038116610feb5760405162461bcd60e51b815260206004820152602660248201527f4f776e61626c653a206e6577206f776e657220697320746865207a65726f206160448201526564647265737360d01b60648201526084016104b4565b610ff48161293c565b50565b600054610100900460ff16158080156110175750600054600160ff909116105b806110315750303b158015611031575060005460ff166001145b6110945760405162461bcd60e51b815260206004820152602e60248201527f496e697469616c697a61626c653a20636f6e747261637420697320616c72656160448201526d191e481a5b9a5d1a585b1a5e995960921b60648201526084016104b4565b6000805460ff1916600117905580156110b7576000805461ff0019166101001790555b6110bf612a26565b6110c7612a4d565b606680546001600160a01b038086166001600160a01b031992831617909255606780548884169083161790556068805487841690831617905560698054928516929091169190911790558015611157576000805461ff0019169055604051600181527f7f26b83ff96e1f2b6a682f133852f6798a09c465da95921460cefb38474024989060200160405180910390a15b5050505050565b602081015160ff1660021415611173576111eb565b602081015160ff1660031415611188576111eb565b60405162461bcd60e51b815260206004820152603260248201527f5f757064617465546f6b656e496444656c7461417474724c69737420657263206044820152716973206e6f7420373231206f72203131353560701b60648201526084016104b4565b60005b81606001515181101561122f5761121f838360000151846040015185606001518581518110610b8157610b81613567565b611228816135cd565b90506111ee565b50505050565b604080516001600160a01b03841660208201529081018290526000906060015b60405160208183030381529060405280519060200120905092915050565b6040805163ffffffff851660208201526001600160a01b03841691810191909152606081018290526000906080015b6040516020818303038152906040528051906020012090509392505050565b604080516001600160a01b038416602082015263ffffffff831691810191909152600090606001611255565b604080516001600160a01b038516602082015290810183905263ffffffff821660608201526000906080016112a2565b6040805163ffffffff8085166020830152831691810191909152600090606001611255565b6040805163ffffffff80871660208301526001600160a01b0386169282019290925260608101849052908216608082015260009060a0015b604051602081830303815290604052805190602001209050949350505050565b60606113a582612a7d565b92915050565b606082826040516020016113c09291906135e8565b604051602081830303815290604052905092915050565b6000806000606560ff16846020015160ff1614806113fc5750602084015160ff166066145b8061140e5750602084015160ff166067145b156114c55760006114238786600001516112c1565b606954604051638c91c7a760e01b8152600481018390529192506001600160a01b031690638c91c7a79060240160206040518083038186803b15801561146857600080fd5b505afa15801561147c573d6000803e3d6000fd5b505050506040513d601f19601f820116820180604052508101906114a0919061359a565b92506114ac8787611235565b91506114bd878787600001516112ed565b935050611575565b60006114d588866000015161131d565b606954604051638c91c7a760e01b8152600481018390529192506001600160a01b031690638c91c7a79060240160206040518083038186803b15801561151a57600080fd5b505afa15801561152e573d6000803e3d6000fd5b505050506040513d601f19601f82011682018060405250810190611552919061359a565b925061155f888888611273565b91506115718888888860000151611342565b9350505b60ff82166115cc5760006115ac6040518060600160405280603081526020016138a76030913986516109bb9063ffffffff1661139a565b906115ca5760405162461bcd60e51b81526004016104b49190612d82565b505b602084015160ff16600114806115e95750602084015160ff166065145b15611a1e576000838152606e6020908152604080832054606f909252918290205491860151600491820b9290910b9060ff16600114156117825760008581526071602052604090205460ff166116db576000838152606a60209081526040808320895181546001810183559185528385206008830401805463ffffffff92831660046007909516949094026101000a938402929093021990921617905588810151888452606c8352818420805460ff92831660ff199182161790915560c08b0151607185528386208054919093169116179055608089015160708352922082516116d99391929190910190612c42565b505b8160040b60001480156116f157508060040b6000145b156117275760608601516000868152606d60205260409020805464ffffffffff191664ffffffffff909216919091179055611a17565b856060015160040b8260040b1315801561174b57508060040b866060015160040b13155b1561177d5760608601516000868152606d60205260409020805464ffffffffff191664ffffffffff9092169190911790555b611a17565b604086015160ff16600214156118c25760008581526071602052604090205460ff166117ad57611a17565b60608601516000868152606d6020526040812080549091906117d390849060040b613624565b92506101000a81548164ffffffffff021916908360040b64ffffffffff1602179055508160040b600014158061180d57508060040b600014155b1561177d576000866060015160040b13801561183d57506000858152606d6020526040902054600482810b91900b135b1561186a576000858152606d60205260409020805464ffffffffff191664ffffffffff8316179055611a17565b6000866060015160040b12801561189557506000858152606d6020526040902054600483810b91900b125b1561177d576000858152606d60205260409020805464ffffffffff191664ffffffffff8416179055611a17565b604086015160ff1660031415611a175760008581526071602052604090205460ff166118ed57611a17565b61271086606001516127106119029190613624565b6000878152606d602052604090205461191e919060040b61366f565b6119289190613700565b6000868152606d60205260409020805464ffffffffff191664ffffffffff92909216919091179055600482900b15158061196657508060040b600014155b15611a17576000866060015160040b13801561199657506000858152606d6020526040902054600482810b91900b135b156119c3576000858152606d60205260409020805464ffffffffff191664ffffffffff8316179055611a17565b6000866060015160040b1280156119ee57506000858152606d6020526040902054600483810b91900b125b15611a17576000858152606d60205260409020805464ffffffffff191664ffffffffff84161790555b50506128d9565b602084015160ff1660021480611a3b5750602084015160ff166066145b15611f8c57600080606660ff16866020015160ff161415611afc576000611a66898860a001516112c1565b606954604051638c91c7a760e01b8152600481018390529192506001600160a01b031690638c91c7a79060240160206040518083038186803b158015611aab57600080fd5b505afa158015611abf573d6000803e3d6000fd5b505050506040513d601f19601f82011682018060405250810190611ae3919061359a565b9150611af489898960a001516112ed565b925050611b9f565b6000611b0c8a8860a0015161131d565b606954604051638c91c7a760e01b8152600481018390529192506001600160a01b031690638c91c7a79060240160206040518083038186803b158015611b5157600080fd5b505afa158015611b65573d6000803e3d6000fd5b505050506040513d601f19601f82011682018060405250810190611b89919061359a565b9150611b9b8a8a8a8a60a00151611342565b9250505b60ff8116158015611bba575060008660a0015163ffffffff16115b15611c10576000611bf06040518060600160405280603681526020016137c3603691396109bb8960a0015163ffffffff1661139a565b90611c0e5760405162461bcd60e51b81526004016104b49190612d82565b505b60008281526071602052604090205460ff16158015611c39575060008660a0015163ffffffff16115b15611c8f576000611c6f604051806060016040528060368152602001613871603691396109bb8960a0015163ffffffff1661139a565b90611c8d5760405162461bcd60e51b81526004016104b49190612d82565b505b60a086015163ffffffff1615611e3a576000828152606b60205260408120905b8154811015611d1457876000015163ffffffff16828281548110611cd557611cd5613567565b6000918252602090912060088204015460079091166004026101000a900463ffffffff161415611d0457611d14565b611d0d816135cd565b9050611caf565b8154811415611e335787518254600181018455600084815260208082206008840401805460079094166004026101000a63ffffffff81810219909516949095169490940292909217909255890151606660ff9091161415611d8a57611d838b8b8b60a001518c6000015161298e565b9050611da2565b611d9f8c8c8c8c60a001518d600001516129c6565b90505b6040898101516000838152606c6020908152838220805460ff191660ff9094169390931790925560608c0151606d8352838220805464ffffffffff191664ffffffffff90921691909117905560808c0151607083529290208251611e0c9391929190910190612c42565b5060c0890151600091825260716020526040909120805460ff191660ff9092169190911790555b5050611a17565b6000838152606a60205260408120905b8154811015611eaf57876000015163ffffffff16828281548110611e7057611e70613567565b6000918252602090912060088204015460079091166004026101000a900463ffffffff161415611e9f57611eaf565b611ea8816135cd565b9050611e4a565b8154811415611f835787518254600181018455600084815260208082206008840401805460079094166004026101000a63ffffffff818102199095169490951694909402929092179092556040808b01518a8452606c8352818420805460ff191660ff90921691909117905560608b0151606d8352818420805464ffffffffff191664ffffffffff90921691909117905560808b01516070835292208251611f5d9391929190910190612c42565b5060c08801516000888152607160205260409020805460ff191660ff9092169190911790555b505050506128d9565b602084015160ff1660031480611fa95750602084015160ff166067145b156126265760a084015163ffffffff1661225b576000818152606a60209081526040808320868452606b909252822090915b825481101561215b57866000015163ffffffff1683828154811061200157612001613567565b6000918252602090912060088204015460079091166004026101000a900463ffffffff16141561214b578254839061203b9060019061374a565b8154811061204b5761204b613567565b90600052602060002090600891828204019190066004029054906101000a900463ffffffff1683828154811061208357612083613567565b90600052602060002090600891828204019190066004026101000a81548163ffffffff021916908363ffffffff160217905550828054806120c6576120c6613761565b60008281526020808220600860001990940193840401805463ffffffff600460078716026101000a021916905591909255878252606c81526040808320805460ff1990811690915560718352818420805490911690556070909152812061212c91612cc6565b6000868152606d60205260409020805464ffffffffff1916905561215b565b612154816135cd565b9050611fdb565b50805460005b81811015611f835760006121b38c8c8c8c6000015188878154811061218857612188613567565b90600052602060002090600891828204019190066004029054906101000a900463ffffffff166129c6565b6000818152606c60209081526040808320805460ff199081169091556071835281842080549091169055607090915281209192506121f19190612cc6565b6000818152606d60205260409020805464ffffffffff19169055835484908061221c5761221c613761565b600082815260209020600860001990920191820401805463ffffffff600460078516026101000a0219169055905550612254816135cd565b9050612161565b600080606760ff16866020015160ff161415612317576000612281898860a001516112c1565b606954604051638c91c7a760e01b8152600481018390529192506001600160a01b031690638c91c7a79060240160206040518083038186803b1580156122c657600080fd5b505afa1580156122da573d6000803e3d6000fd5b505050506040513d601f19601f820116820180604052508101906122fe919061359a565b915061230f89898960a001516112ed565b9250506123ba565b60006123278a8860a0015161131d565b606954604051638c91c7a760e01b8152600481018390529192506001600160a01b031690638c91c7a79060240160206040518083038186803b15801561236c57600080fd5b505afa158015612380573d6000803e3d6000fd5b505050506040513d601f19601f820116820180604052508101906123a4919061359a565b91506123b68a8a8a8a60a00151611342565b9250505b60ff81166124135760006123f36040518060600160405280603d8152602001613834603d91396109bb8960a0015163ffffffff1661139a565b906124115760405162461bcd60e51b81526004016104b49190612d82565b505b60008281526071602052604090205460ff1661247a57600061245a6040518060600160405280603d81526020016138d7603d91396109bb8960a0015163ffffffff1661139a565b906124785760405162461bcd60e51b81526004016104b49190612d82565b505b6000828152606b60205260408120905b8154811015611f8357876000015163ffffffff168282815481106124b0576124b0613567565b6000918252602090912060088204015460079091166004026101000a900463ffffffff16141561261657815482906124ea9060019061374a565b815481106124fa576124fa613567565b90600052602060002090600891828204019190066004029054906101000a900463ffffffff1682828154811061253257612532613567565b90600052602060002090600891828204019190066004026101000a81548163ffffffff021916908363ffffffff1602179055508180548061257557612575613761565b600082815260208120600860001990930192830401805463ffffffff600460078616026101000a0219169055915560a089015189516125b9918e918e918e916129c6565b6000818152606c60209081526040808320805460ff199081169091556071835281842080549091169055607090915281209192506125f79190612cc6565b6000908152606d60205260409020805464ffffffffff19169055611f83565b61261f816135cd565b905061248a565b602084015160ff16600514806126435750602084015160ff166069145b1561279657604084015160ff16600114156126895760608401516000848152606e60205260409020805464ffffffffff191664ffffffffff9092169190911790556128d9565b604084015160ff16600214156127025760008381526071602052604090205460ff166126b4576128d9565b60608401516000848152606e6020526040812080549091906126da90849060040b613624565b92506101000a81548164ffffffffff021916908360040b64ffffffffff1602179055506128d9565b604084015160ff16600314156127915760008381526071602052604090205460ff1661272d576128d9565b61271084606001516127106127429190613624565b6000858152606e602052604090205461275e919060040b61366f565b6127689190613700565b6000848152606e60205260409020805464ffffffffff191664ffffffffff929092169190911790555b6128d9565b602084015160ff16600614806127b35750602084015160ff16606a145b156128d957604084015160ff16600114156127f95760608401516000848152606f60205260409020805464ffffffffff191664ffffffffff9092169190911790556128d9565b604084015160ff166002141561284a5760008381526071602052604090205460ff16612824576128d9565b60608401516000848152606f6020526040812080549091906126da90849060040b613624565b604084015160ff16600314156128d95760008381526071602052604090205460ff16612875576128d9565b612710846060015161271061288a9190613624565b6000858152606f60205260409020546128a6919060040b61366f565b6128b09190613700565b6000848152606f60205260409020805464ffffffffff191664ffffffffff929092169190911790555b50505050505050565b6033546001600160a01b03163314610d105760405162461bcd60e51b815260206004820181905260248201527f4f776e61626c653a2063616c6c6572206973206e6f7420746865206f776e657260448201526064016104b4565b603380546001600160a01b038381166001600160a01b0319831681179093556040519116919082907f8be0079c531659141344cd1fd0a4f28419497f9722a3daafe3b4186f6b6457e090600090a35050565b604080516001600160a01b038616602082015290810184905263ffffffff80841660608301528216608082015260009060a00161137a565b6040805163ffffffff80881660208301526001600160a01b0387169282019290925260608101859052818416608082015290821660a082015260009060c00160405160208183030381529060405280519060200120905095945050505050565b600054610100900460ff16610d105760405162461bcd60e51b81526004016104b490613777565b600054610100900460ff16612a745760405162461bcd60e51b81526004016104b490613777565b610d103361293c565b60606000612a8a83612b19565b60010190506000816001600160401b03811115612aa957612aa9612dd3565b6040519080825280601f01601f191660200182016040528015612ad3576020820181803683370190505b5090508181016020015b600019016f181899199a1a9b1b9c1cb0b131b232b360811b600a86061a8153600a8504945084612b0c57612b11565b612add565b509392505050565b60008072184f03e93ff9f4daa797ed6e38ed64bf6a1f0160401b8310612b585772184f03e93ff9f4daa797ed6e38ed64bf6a1f0160401b830492506040015b6904ee2d6d415b85acef8160201b8310612b82576904ee2d6d415b85acef8160201b830492506020015b662386f26fc100008310612ba057662386f26fc10000830492506010015b6305f5e1008310612bb8576305f5e100830492506008015b6127108310612bcc57612710830492506004015b60648310612bde576064830492506002015b600a83106113a55760010192915050565b604080516101408101825260008082526020820181905291810182905260608082018390526080820183905260a0820183905260c082015260e08101829052610100810182905261012081019190915290565b828054612c4e9061350a565b90600052602060002090601f016020900481019282612c705760008555612cb6565b82601f10612c8957805160ff1916838001178555612cb6565b82800160010185558215612cb6579182015b82811115612cb6578251825591602001919060010190612c9b565b50612cc2929150612cfc565b5090565b508054612cd29061350a565b6000825580601f10612ce2575050565b601f016020900490600052602060002090810190610ff491905b5b80821115612cc25760008155600101612cfd565b600060208284031215612d2357600080fd5b5035919050565b60005b83811015612d45578181015183820152602001612d2d565b8381111561122f5750506000910152565b60008151808452612d6e816020860160208601612d2a565b601f01601f19169290920160200192915050565b602081526000612d956020830184612d56565b9392505050565b60008060408385031215612daf57600080fd5b50508035926020909101359150565b6001600160a01b0381168114610ff457600080fd5b634e487b7160e01b600052604160045260246000fd5b604051608081016001600160401b0381118282101715612e0b57612e0b612dd3565b60405290565b60405161010081016001600160401b0381118282101715612e0b57612e0b612dd3565b604051601f8201601f191681016001600160401b0381118282101715612e5c57612e5c612dd3565b604052919050565b60ff81168114610ff457600080fd5b8035612e7e81612e64565b919050565b60006001600160401b03821115612e9c57612e9c612dd3565b5060051b60200190565b803563ffffffff81168114612e7e57600080fd5b8035600481900b8114612e7e57600080fd5b600082601f830112612edd57600080fd5b81356001600160401b03811115612ef657612ef6612dd3565b612f09601f8201601f1916602001612e34565b818152846020838601011115612f1e57600080fd5b816020850160208301376000918101602001919091529392505050565b80356001600160e01b031981168114612e7e57600080fd5b600060808284031215612f6557600080fd5b612f6d612de9565b90508135612f7a81612dbe565b8152602082810135612f8b81612e64565b828201526040838101359083015260608301356001600160401b0380821115612fb357600080fd5b818501915085601f830112612fc757600080fd5b8135612fda612fd582612e83565b612e34565b81815260059190911b83018401908481019088831115612ff957600080fd5b8585015b838110156130df578035858111156130155760008081fd5b8601610100818c03601f190181131561302e5760008081fd5b613036612e11565b6130418a8401612ea6565b815261304f60408401612e73565b8a82015261305f60608401612e73565b604082015261307060808401612eba565b606082015260a080840135898111156130895760008081fd5b6130978f8d83880101612ecc565b60808401525060c06130aa818601612ea6565b8284015260e091506130bd828601612e73565b908301526130cc848401612f3b565b9082015285525050918601918601612ffd565b50606087015250939695505050505050565b6000806040838503121561310457600080fd5b823561310f81612dbe565b915060208301356001600160401b0381111561312a57600080fd5b61313685828601612f53565b9150509250929050565b6000806040838503121561315357600080fd5b61315c83612ea6565b91506020808401356001600160401b038082111561317957600080fd5b818601915086601f83011261318d57600080fd5b813561319b612fd582612e83565b81815260059190911b830184019084810190898311156131ba57600080fd5b8585015b838110156131f2578035858111156131d65760008081fd5b6131e48c89838a0101612f53565b8452509186019186016131be565b508096505050505050509250929050565b60008060006060848603121561321857600080fd5b61322184612ea6565b9250602084013561323181612dbe565b929592945050506040919091013590565b6020808252825182820181905260009190848201906040850190845b8181101561328057835163ffffffff168352928401929184019160010161325e565b50909695505050505050565b6000806000606084860312156132a157600080fd5b83356132ac81612dbe565b92506132ba60208501612ea6565b915060408401356001600160401b038111156132d557600080fd5b6132e186828701612f53565b9150509250925092565b6001600160a01b0391909116815260200190565b6000806000806080858703121561331557600080fd5b61331e85612ea6565b9350602085013561332e81612dbe565b92506040850135915061334360608601612ea6565b905092959194509250565b600080600080600060a0868803121561336657600080fd5b61336f86612ea6565b9450602086013561337f81612dbe565b93506040860135925061339460608701612ea6565b91506133a260808701612ea6565b90509295509295909350565b602081526133c560208201835163ffffffff169052565b600060208301516133db604084018260ff169052565b50604083015160ff811660608401525060608301516133ff608084018260040b9052565b50608083015161341460a084018260040b9052565b5060a083015161342960c084018260040b9052565b5060c08301516101408060e0850152613446610160850183612d56565b915060e08501516101006134618187018363ffffffff169052565b86015190506101206134778682018360ff169052565b909501516001600160e01b03191693019290925250919050565b6000602082840312156134a357600080fd5b8135612d9581612dbe565b600080600080608085870312156134c457600080fd5b84356134cf81612dbe565b935060208501356134df81612dbe565b925060408501356134ef81612dbe565b915060608501356134ff81612dbe565b939692955090935050565b600181811c9082168061351e57607f821691505b6020821081141561353f57634e487b7160e01b600052602260045260246000fd5b50919050565b60006020828403121561355757600080fd5b81518015158114612d9557600080fd5b634e487b7160e01b600052603260045260246000fd5b60006020828403121561358f57600080fd5b8151612d9581612dbe565b6000602082840312156135ac57600080fd5b8151612d9581612e64565b634e487b7160e01b600052601160045260246000fd5b60006000198214156135e1576135e16135b7565b5060010190565b600083516135fa818460208801612d2a565b600b60fa1b9083019081528351613618816001840160208801612d2a565b01600101949350505050565b60008160040b8360040b6000821282647fffffffff0382138115161561364c5761364c6135b7565b82647fffffffff19038212811615613666576136666135b7565b50019392505050565b60008160040b8360040b647fffffffff60008213600084138383048511828216161561369d5761369d6135b7565b647fffffffff1960008512828116878305871216156136be576136be6135b7565b600087129250858205871284841616156136da576136da6135b7565b858505871281841616156136f0576136f06135b7565b5050509290910295945050505050565b60008160040b8360040b8061372557634e487b7160e01b600052601260045260246000fd5b647fffffffff19821460001982141615613741576137416135b7565b90059392505050565b60008282101561375c5761375c6135b7565b500390565b634e487b7160e01b600052603160045260246000fd5b6020808252602b908201527f496e697469616c697a61626c653a20636f6e7472616374206973206e6f74206960408201526a6e697469616c697a696e6760a81b60608201526080019056fe5f70726f63657373546f6b656e4174747220706172656e74417474724964206e6f7420657869737420696e2064696374696f6e617279757064617465436c7573746572546f6b656e4964417474724c69737420617474724964206e6f7420657869737420696e2064696374696f6e6172795f70726f63657373546f6b656e417474722064657461636820706172656e74417474724964206e6f7420657869737420696e2064696374696f6e6172795f70726f63657373546f6b656e4174747220706172656e74417474724964206e6f74206578697374206f6e207468697320746f6b656e5f70726f63657373546f6b656e4174747220617474724964206e6f7420657869737420696e2064696374696f6e6172795f70726f63657373546f6b656e417474722064657461636820706172656e74417474724964206e6f74206578697374206f6e207468697320746f6b656ea2646970667358221220ce763b54c6e6b9d39fd2cd9eb3ca8fa6de949b73bd2b61231b7b9d0c04550eb064736f6c63430008080033",
  "linkReferences": {},
  "deployedLinkReferences": {}
}