{
  "_format": "hh-sol-artifact-1",
  "contractName": "ClusterMountingArea",
  "sourceName": "contracts/V3/ClusterMountingArea.sol",
  "abi": [
    {
      "anonymous": false,
      "inputs": [
        {
          "indexed": false,
          "internalType": "uint8",
          "name": "version",
          "type": "uint8"
        }
      ],
      "name": "Initialized",
      "type": "event"
    },
    {
      "anonymous": false,
      "inputs": [
        {
          "indexed": true,
          "internalType": "address",
          "name": "previousOwner",
          "type": "address"
        },
        {
          "indexed": true,
          "internalType": "address",
          "name": "newOwner",
          "type": "address"
        }
      ],
      "name": "OwnershipTransferred",
      "type": "event"
    },
    {
      "inputs": [
        {
          "internalType": "uint32",
          "name": "clusterId",
          "type": "uint32"
        },
        {
          "internalType": "address",
          "name": "token",
          "type": "address"
        },
        {
          "internalType": "uint256",
          "name": "tokenId",
          "type": "uint256"
        },
        {
          "internalType": "address",
          "name": "tokenMountingAddress",
          "type": "address"
        },
        {
          "internalType": "uint256",
          "name": "tokenMountingId",
          "type": "uint256"
        }
      ],
      "name": "checkTokenMountingExist",
      "outputs": [
        {
          "internalType": "bool",
          "name": "",
          "type": "bool"
        }
      ],
      "stateMutability": "view",
      "type": "function"
    },
    {
      "inputs": [],
      "name": "cname",
      "outputs": [
        {
          "internalType": "string",
          "name": "",
          "type": "string"
        }
      ],
      "stateMutability": "pure",
      "type": "function"
    },
    {
      "inputs": [
        {
          "internalType": "uint32",
          "name": "clusterId",
          "type": "uint32"
        },
        {
          "internalType": "address",
          "name": "token",
          "type": "address"
        },
        {
          "internalType": "uint256",
          "name": "tokenId",
          "type": "uint256"
        }
      ],
      "name": "getTokenMountingList",
      "outputs": [
        {
          "components": [
            {
              "internalType": "uint8",
              "name": "erc",
              "type": "uint8"
            },
            {
              "internalType": "address",
              "name": "token",
              "type": "address"
            },
            {
              "internalType": "uint256",
              "name": "id",
              "type": "uint256"
            },
            {
              "internalType": "uint256",
              "name": "amount",
              "type": "uint256"
            }
          ],
          "internalType": "struct Token.TokenMounting[]",
          "name": "",
          "type": "tuple[]"
        }
      ],
      "stateMutability": "view",
      "type": "function"
    },
    {
      "inputs": [
        {
          "internalType": "address",
          "name": "clusterArea_",
          "type": "address"
        },
        {
          "internalType": "address",
          "name": "poolContract_",
          "type": "address"
        },
        {
          "internalType": "address",
          "name": "engine_",
          "type": "address"
        }
      ],
      "name": "initialize",
      "outputs": [],
      "stateMutability": "nonpayable",
      "type": "function"
    },
    {
      "inputs": [
        {
          "internalType": "address",
          "name": "caller",
          "type": "address"
        },
        {
          "internalType": "uint32",
          "name": "clusterId",
          "type": "uint32"
        },
        {
          "internalType": "uint8",
          "name": "erc",
          "type": "uint8"
        },
        {
          "internalType": "address",
          "name": "token",
          "type": "address"
        },
        {
          "internalType": "uint256",
          "name": "tokenId",
          "type": "uint256"
        },
        {
          "components": [
            {
              "internalType": "uint8",
              "name": "erc",
              "type": "uint8"
            },
            {
              "internalType": "address",
              "name": "token",
              "type": "address"
            },
            {
              "internalType": "uint256",
              "name": "id",
              "type": "uint256"
            },
            {
              "internalType": "uint256",
              "name": "amount",
              "type": "uint256"
            }
          ],
          "internalType": "struct Token.TokenMounting",
          "name": "tokenMounting",
          "type": "tuple"
        }
      ],
      "name": "mountToken",
      "outputs": [],
      "stateMutability": "nonpayable",
      "type": "function"
    },
    {
      "inputs": [],
      "name": "owner",
      "outputs": [
        {
          "internalType": "address",
          "name": "",
          "type": "address"
        }
      ],
      "stateMutability": "view",
      "type": "function"
    },
    {
      "inputs": [],
      "name": "renounceOwnership",
      "outputs": [],
      "stateMutability": "nonpayable",
      "type": "function"
    },
    {
      "inputs": [
        {
          "internalType": "bytes32",
          "name": "",
          "type": "bytes32"
        }
      ],
      "name": "tokenMountingExist",
      "outputs": [
        {
          "internalType": "bool",
          "name": "",
          "type": "bool"
        }
      ],
      "stateMutability": "view",
      "type": "function"
    },
    {
      "inputs": [
        {
          "internalType": "bytes32",
          "name": "",
          "type": "bytes32"
        },
        {
          "internalType": "uint256",
          "name": "",
          "type": "uint256"
        }
      ],
      "name": "tokenMountingList",
      "outputs": [
        {
          "internalType": "uint8",
          "name": "erc",
          "type": "uint8"
        },
        {
          "internalType": "address",
          "name": "token",
          "type": "address"
        },
        {
          "internalType": "uint256",
          "name": "id",
          "type": "uint256"
        },
        {
          "internalType": "uint256",
          "name": "amount",
          "type": "uint256"
        }
      ],
      "stateMutability": "view",
      "type": "function"
    },
    {
      "inputs": [
        {
          "internalType": "address",
          "name": "newOwner",
          "type": "address"
        }
      ],
      "name": "transferOwnership",
      "outputs": [],
      "stateMutability": "nonpayable",
      "type": "function"
    },
    {
      "inputs": [
        {
          "internalType": "address",
          "name": "caller",
          "type": "address"
        },
        {
          "internalType": "uint32",
          "name": "clusterId",
          "type": "uint32"
        },
        {
          "internalType": "uint8",
          "name": "erc",
          "type": "uint8"
        },
        {
          "internalType": "address",
          "name": "token",
          "type": "address"
        },
        {
          "internalType": "uint256",
          "name": "tokenId",
          "type": "uint256"
        },
        {
          "components": [
            {
              "internalType": "uint8",
              "name": "erc",
              "type": "uint8"
            },
            {
              "internalType": "address",
              "name": "token",
              "type": "address"
            },
            {
              "internalType": "uint256",
              "name": "id",
              "type": "uint256"
            },
            {
              "internalType": "uint256",
              "name": "amount",
              "type": "uint256"
            }
          ],
          "internalType": "struct Token.TokenMounting",
          "name": "tokenMounting",
          "type": "tuple"
        }
      ],
      "name": "unmountToken",
      "outputs": [
        {
          "internalType": "bool",
          "name": "",
          "type": "bool"
        }
      ],
      "stateMutability": "nonpayable",
      "type": "function"
    },
    {
      "inputs": [],
      "name": "version",
      "outputs": [
        {
          "internalType": "uint256",
          "name": "",
          "type": "uint256"
        }
      ],
      "stateMutability": "pure",
      "type": "function"
    }
  ],
  "bytecode": "0x608060405234801561001057600080fd5b5061113d806100206000396000f3fe608060405234801561001057600080fd5b50600436106100a45760003560e01c8063010b5603146100a957806315fb58ee146100be57806334c76b25146100f657806354fd4d501461012b578063715018a61461013a57806381c964d4146101425780638da5cb5b14610155578063908a3fca14610170578063c0c53b8b14610183578063d38c07ea14610196578063de229194146101d5578063f2fde38b146101f5575b600080fd5b6100bc6100b7366004610d62565b610208565b005b6100e16100cc366004610e41565b606a6020526000908152604090205460ff1681565b60405190151581526020015b60405180910390f35b6040805180820182526013815272436c75737465724d6f756e74696e674172656160681b602082015290516100ed9190610e5a565b604051600181526020016100ed565b6100bc6104d7565b6100e1610150366004610d62565b6104eb565b6033546040516001600160a01b0390911681526020016100ed565b6100e161017e366004610eaf565b6107d2565b6100bc610191366004610f04565b610801565b6101a96101a4366004610f47565b61095a565b6040805160ff90951685526001600160a01b0390931660208501529183015260608201526080016100ed565b6101e86101e3366004610f69565b6109ad565b6040516100ed9190610fa5565b6100bc610203366004611015565b610a61565b6066546001600160a01b031633146102725760405162461bcd60e51b815260206004820152602260248201527f63616c6c206d6f756e74546f6b656e2073656e646572206d75737420656e67696044820152616e6560f01b60648201526084015b60405180910390fd5b60ff841660021480610287575060ff84166003145b6102de5760405162461bcd60e51b815260206004820152602260248201527f6d6f756e74546f6b656e20706172656e74206d75737420373231206f72203131604482015261353560f01b6064820152608401610269565b805160ff16600214806102f55750805160ff166003145b6103535760405162461bcd60e51b815260206004820152602960248201527f6d6f756e74546f6b656e20746f6b656e4d6f756e74696e67206d75737420373260448201526831206f72203131353560b81b6064820152608401610269565b600061036a86858585602001518660400151610ada565b90506000610379878686610b8d565b6000838152606a602052604090205490915060ff1661041657600081815260696020908152604080832080546001818101835591855283852088516003909202018054898601516001600160a01b0316610100026001600160a81b031990911660ff9093169290921791909117815587830151818301556060880151600290910155858452606a909252909120805460ff191690911790556104cd565b6000818152606960205260408120905b81548110156104ca57600082828154811061044357610443611030565b9060005260206000209060030201905085602001516001600160a01b03168160000160019054906101000a90046001600160a01b03166001600160a01b0316148015610496575085604001518160010154145b156104b95785606001518160020160008282546104b3919061105c565b90915550505b506104c381611074565b9050610426565b50505b5050505050505050565b6104df610c1e565b6104e96000610c78565b565b6066546000906001600160a01b031633146105545760405162461bcd60e51b8152602060048201526024808201527f63616c6c20756e6d6f756e74546f6b656e2073656e646572206d75737420656e60448201526367696e6560e01b6064820152608401610269565b6000610561878686610b8d565b60008181526069602052604081209192505b81548110156107c057600082828154811061059057610590611030565b9060005260206000209060030201905085602001516001600160a01b03168160000160019054906101000a90046001600160a01b03166001600160a01b03161480156105e3575085604001518160010154145b80156105f757508560600151816002015410155b156107af5760028101541580610614575085606001518160020154145b1561077a5782546001141561066857828054806106335761063361108f565b60008281526020812060036000199093019283020180546001600160a81b031916815560018101829055600201559055610747565b82548390610678906001906110a5565b8154811061068857610688611030565b90600052602060002090600302018383815481106106a8576106a8611030565b600091825260209091208254600390920201805460ff90921660ff1983168117825583546001600160a81b031990931617610100928390046001600160a01b03169092029190911781556001808301549082015560029182015491015582548390806107165761071661108f565b60008281526020812060036000199093019283020180546001600160a81b0319168155600181018290556002015590555b600061075e8b8a8a8a602001518b60400151610ada565b6000908152606a60205260409020805460ff19169055506107a2565b6060860151156107a257856060015181600201600082825461079c91906110a5565b90915550505b60019450505050506107c8565b506107b981611074565b9050610573565b506000925050505b9695505050505050565b6000806107e28787878787610ada565b6000908152606a602052604090205460ff169150505b95945050505050565b600054610100900460ff16158080156108215750600054600160ff909116105b8061083b5750303b15801561083b575060005460ff166001145b61089e5760405162461bcd60e51b815260206004820152602e60248201527f496e697469616c697a61626c653a20636f6e747261637420697320616c72656160448201526d191e481a5b9a5d1a585b1a5e995960921b6064820152608401610269565b6000805460ff1916600117905580156108c1576000805461ff0019166101001790555b6108c9610cca565b6108d1610cf1565b606680546001600160a01b038085166001600160a01b0319928316179092556067805487841690831617905560688054928616929091169190911790558015610954576000805461ff0019169055604051600181527f7f26b83ff96e1f2b6a682f133852f6798a09c465da95921460cefb38474024989060200160405180910390a15b50505050565b6069602052816000526040600020818154811061097657600080fd5b600091825260209091206003909102018054600182015460029092015460ff821694506101009091046001600160a01b0316925084565b606060006109bc858585610b8d565b905060696000828152602001908152602001600020805480602002602001604051908101604052809291908181526020016000905b82821015610a525760008481526020908190206040805160808101825260038602909201805460ff8116845261010090046001600160a01b0316838501526001808201549284019290925260020154606083015290835290920191016109f1565b505050509150505b9392505050565b610a69610c1e565b6001600160a01b038116610ace5760405162461bcd60e51b815260206004820152602660248201527f4f776e61626c653a206e6577206f776e657220697320746865207a65726f206160448201526564647265737360d01b6064820152608401610269565b610ad781610c78565b50565b600063ffffffff861615610b40576040805163ffffffff881660208201526001600160a01b038088169282019290925260608101869052908416608082015260a0810183905260c0016040516020818303038152906040528051906020012090506107f8565b604080516001600160a01b03808816602083015291810186905290841660608201526080810183905260a00160405160208183030381529060405280519060200120905095945050505050565b600063ffffffff841615610be3576040805163ffffffff861660208201526001600160a01b0385169181019190915260608101839052608001604051602081830303815290604052805190602001209050610a5a565b604080516001600160a01b03851660208201529081018390526060016040516020818303038152906040528051906020012090509392505050565b6033546001600160a01b031633146104e95760405162461bcd60e51b815260206004820181905260248201527f4f776e61626c653a2063616c6c6572206973206e6f7420746865206f776e65726044820152606401610269565b603380546001600160a01b038381166001600160a01b0319831681179093556040519116919082907f8be0079c531659141344cd1fd0a4f28419497f9722a3daafe3b4186f6b6457e090600090a35050565b600054610100900460ff166104e95760405162461bcd60e51b8152600401610269906110bc565b600054610100900460ff16610d185760405162461bcd60e51b8152600401610269906110bc565b6104e933610c78565b80356001600160a01b0381168114610d3857600080fd5b919050565b803563ffffffff81168114610d3857600080fd5b803560ff81168114610d3857600080fd5b600080600080600080868803610120811215610d7d57600080fd5b610d8688610d21565b9650610d9460208901610d3d565b9550610da260408901610d51565b9450610db060608901610d21565b93506080888101359350609f1982011215610dca57600080fd5b506040516080810181811067ffffffffffffffff82111715610dfc57634e487b7160e01b600052604160045260246000fd5b604052610e0b60a08901610d51565b8152610e1960c08901610d21565b602082015260e088013560408201526101008801356060820152809150509295509295509295565b600060208284031215610e5357600080fd5b5035919050565b600060208083528351808285015260005b81811015610e8757858101830151858201604001528201610e6b565b81811115610e99576000604083870101525b50601f01601f1916929092016040019392505050565b600080600080600060a08688031215610ec757600080fd5b610ed086610d3d565b9450610ede60208701610d21565b935060408601359250610ef360608701610d21565b949793965091946080013592915050565b600080600060608486031215610f1957600080fd5b610f2284610d21565b9250610f3060208501610d21565b9150610f3e60408501610d21565b90509250925092565b60008060408385031215610f5a57600080fd5b50508035926020909101359150565b600080600060608486031215610f7e57600080fd5b610f8784610d3d565b9250610f9560208501610d21565b9150604084013590509250925092565b602080825282518282018190526000919060409081850190868401855b82811015611008578151805160ff168552868101516001600160a01b03168786015285810151868601526060908101519085015260809093019290850190600101610fc2565b5091979650505050505050565b60006020828403121561102757600080fd5b610a5a82610d21565b634e487b7160e01b600052603260045260246000fd5b634e487b7160e01b600052601160045260246000fd5b6000821982111561106f5761106f611046565b500190565b600060001982141561108857611088611046565b5060010190565b634e487b7160e01b600052603160045260246000fd5b6000828210156110b7576110b7611046565b500390565b6020808252602b908201527f496e697469616c697a61626c653a20636f6e7472616374206973206e6f74206960408201526a6e697469616c697a696e6760a81b60608201526080019056fea264697066735822122009514ff9dcf7664f28f935d1000bdf5ea0ff37256bd2ff8b206205eb92dd106264736f6c63430008080033",
  "linkReferences": {},
  "deployedLinkReferences": {}
}