{
  "_format": "hh-sol-artifact-1",
  "contractName": "DecodeHelper",
  "sourceName": "contracts/V3/rlp/DecodeHelper.sol",
  "abi": [
    {
      "inputs": [
        {
          "internalType": "bytes",
          "name": "item",
          "type": "bytes"
        }
      ],
      "name": "bytesToString",
      "outputs": [
        {
          "internalType": "string",
          "name": "",
          "type": "string"
        }
      ],
      "stateMutability": "pure",
      "type": "function"
    },
    {
      "inputs": [
        {
          "internalType": "bytes",
          "name": "item",
          "type": "bytes"
        }
      ],
      "name": "customDestructure",
      "outputs": [
        {
          "internalType": "address",
          "name": "",
          "type": "address"
        },
        {
          "internalType": "bool",
          "name": "",
          "type": "bool"
        },
        {
          "internalType": "uint256",
          "name": "",
          "type": "uint256"
        }
      ],
      "stateMutability": "pure",
      "type": "function"
    },
    {
      "inputs": [
        {
          "internalType": "bytes",
          "name": "item",
          "type": "bytes"
        }
      ],
      "name": "customNestedDestructure",
      "outputs": [
        {
          "internalType": "address",
          "name": "",
          "type": "address"
        },
        {
          "internalType": "uint256",
          "name": "",
          "type": "uint256"
        }
      ],
      "stateMutability": "pure",
      "type": "function"
    },
    {
      "inputs": [
        {
          "internalType": "bytes",
          "name": "item",
          "type": "bytes"
        }
      ],
      "name": "customNestedDestructureKeccak",
      "outputs": [
        {
          "internalType": "bytes32",
          "name": "",
          "type": "bytes32"
        },
        {
          "internalType": "bytes32",
          "name": "",
          "type": "bytes32"
        }
      ],
      "stateMutability": "pure",
      "type": "function"
    },
    {
      "inputs": [
        {
          "internalType": "bytes",
          "name": "item",
          "type": "bytes"
        }
      ],
      "name": "customNestedToRlpBytes",
      "outputs": [
        {
          "internalType": "bytes",
          "name": "",
          "type": "bytes"
        }
      ],
      "stateMutability": "pure",
      "type": "function"
    },
    {
      "inputs": [
        {
          "internalType": "bytes",
          "name": "item",
          "type": "bytes"
        }
      ],
      "name": "isList",
      "outputs": [
        {
          "internalType": "bool",
          "name": "",
          "type": "bool"
        }
      ],
      "stateMutability": "pure",
      "type": "function"
    },
    {
      "inputs": [
        {
          "internalType": "bytes",
          "name": "item",
          "type": "bytes"
        }
      ],
      "name": "itemLength",
      "outputs": [
        {
          "internalType": "uint256",
          "name": "",
          "type": "uint256"
        }
      ],
      "stateMutability": "pure",
      "type": "function"
    },
    {
      "inputs": [
        {
          "internalType": "bytes",
          "name": "item",
          "type": "bytes"
        }
      ],
      "name": "nestedIteration",
      "outputs": [
        {
          "internalType": "string",
          "name": "",
          "type": "string"
        }
      ],
      "stateMutability": "pure",
      "type": "function"
    },
    {
      "inputs": [
        {
          "internalType": "bytes",
          "name": "item",
          "type": "bytes"
        }
      ],
      "name": "numItems",
      "outputs": [
        {
          "internalType": "uint256",
          "name": "",
          "type": "uint256"
        }
      ],
      "stateMutability": "pure",
      "type": "function"
    },
    {
      "inputs": [
        {
          "internalType": "bytes",
          "name": "item",
          "type": "bytes"
        }
      ],
      "name": "payloadKeccak256",
      "outputs": [
        {
          "internalType": "bytes32",
          "name": "",
          "type": "bytes32"
        }
      ],
      "stateMutability": "pure",
      "type": "function"
    },
    {
      "inputs": [
        {
          "internalType": "bytes",
          "name": "item",
          "type": "bytes"
        }
      ],
      "name": "payloadLocation",
      "outputs": [
        {
          "internalType": "uint256",
          "name": "payloadMemPtr",
          "type": "uint256"
        },
        {
          "internalType": "uint256",
          "name": "payloadLen",
          "type": "uint256"
        },
        {
          "internalType": "uint256",
          "name": "itemMemPtr",
          "type": "uint256"
        }
      ],
      "stateMutability": "pure",
      "type": "function"
    },
    {
      "inputs": [
        {
          "internalType": "bytes",
          "name": "item",
          "type": "bytes"
        }
      ],
      "name": "rlpBytesKeccak256",
      "outputs": [
        {
          "internalType": "bytes32",
          "name": "",
          "type": "bytes32"
        }
      ],
      "stateMutability": "pure",
      "type": "function"
    },
    {
      "inputs": [
        {
          "internalType": "bytes",
          "name": "item",
          "type": "bytes"
        }
      ],
      "name": "rlpLen",
      "outputs": [
        {
          "internalType": "uint256",
          "name": "",
          "type": "uint256"
        }
      ],
      "stateMutability": "pure",
      "type": "function"
    },
    {
      "inputs": [
        {
          "internalType": "bytes",
          "name": "item",
          "type": "bytes"
        }
      ],
      "name": "toAddress",
      "outputs": [
        {
          "internalType": "address",
          "name": "",
          "type": "address"
        }
      ],
      "stateMutability": "pure",
      "type": "function"
    },
    {
      "inputs": [
        {
          "internalType": "bytes",
          "name": "rlpHeader",
          "type": "bytes"
        }
      ],
      "name": "toBlockHeader",
      "outputs": [
        {
          "internalType": "bytes32",
          "name": "parentHash",
          "type": "bytes32"
        },
        {
          "internalType": "bytes32",
          "name": "sha3Uncles",
          "type": "bytes32"
        },
        {
          "internalType": "bytes32",
          "name": "stateRoot",
          "type": "bytes32"
        },
        {
          "internalType": "bytes32",
          "name": "transactionsRoot",
          "type": "bytes32"
        },
        {
          "internalType": "bytes32",
          "name": "receiptsRoot",
          "type": "bytes32"
        },
        {
          "internalType": "uint256",
          "name": "difficulty",
          "type": "uint256"
        },
        {
          "internalType": "uint256",
          "name": "number",
          "type": "uint256"
        },
        {
          "internalType": "uint256",
          "name": "gasLimit",
          "type": "uint256"
        },
        {
          "internalType": "uint256",
          "name": "gasUsed",
          "type": "uint256"
        },
        {
          "internalType": "uint256",
          "name": "timestamp",
          "type": "uint256"
        },
        {
          "internalType": "uint256",
          "name": "nonce",
          "type": "uint256"
        }
      ],
      "stateMutability": "pure",
      "type": "function"
    },
    {
      "inputs": [
        {
          "internalType": "bytes",
          "name": "item",
          "type": "bytes"
        }
      ],
      "name": "toBoolean",
      "outputs": [
        {
          "internalType": "bool",
          "name": "",
          "type": "bool"
        }
      ],
      "stateMutability": "pure",
      "type": "function"
    },
    {
      "inputs": [
        {
          "internalType": "bytes",
          "name": "item",
          "type": "bytes"
        }
      ],
      "name": "toBytes",
      "outputs": [
        {
          "internalType": "bytes",
          "name": "",
          "type": "bytes"
        }
      ],
      "stateMutability": "pure",
      "type": "function"
    },
    {
      "inputs": [
        {
          "internalType": "bytes",
          "name": "item",
          "type": "bytes"
        }
      ],
      "name": "toIterator",
      "outputs": [],
      "stateMutability": "pure",
      "type": "function"
    },
    {
      "inputs": [
        {
          "internalType": "bytes",
          "name": "item",
          "type": "bytes"
        }
      ],
      "name": "toRlpBytes",
      "outputs": [
        {
          "internalType": "bytes",
          "name": "",
          "type": "bytes"
        }
      ],
      "stateMutability": "pure",
      "type": "function"
    },
    {
      "inputs": [
        {
          "internalType": "bytes",
          "name": "item",
          "type": "bytes"
        }
      ],
      "name": "toUint",
      "outputs": [
        {
          "internalType": "uint256",
          "name": "",
          "type": "uint256"
        }
      ],
      "stateMutability": "pure",
      "type": "function"
    },
    {
      "inputs": [
        {
          "internalType": "bytes",
          "name": "item",
          "type": "bytes"
        }
      ],
      "name": "toUintStrict",
      "outputs": [
        {
          "internalType": "uint256",
          "name": "",
          "type": "uint256"
        }
      ],
      "stateMutability": "pure",
      "type": "function"
    }
  ],
  "bytecode": "0x608060405234801561001057600080fd5b50611233806100206000396000f3fe608060405234801561001057600080fd5b50600436106101175760003560e01c806374c4c494116100a857806374c4c4941461029657806376193f8c146102a95780638109672f146102bc5780638529d576146102cf578063aac19545146102e2578063d03ca5a3146102f5578063dd208ea11461030a578063e7617bf81461031d578063e79fbcec1461022d578063eb4eb37214610383578063f29cddc01461039657600080fd5b806304ba34271461011c578063059a97fb1461014457806315943cb61461017c57806319921bd0146101ae57806320f91849146101c15780632d888869146101e257806333c82d181461020d57806339614e4f1461022d57806345fce4f91461024057806364ea19291461026e575b600080fd5b61012f61012a366004610f53565b6103a9565b60405190151581526020015b60405180910390f35b610157610152366004610f53565b6103c7565b604080516001600160a01b03909416845291151560208401529082015260600161013b565b61018f61018a366004610f53565b610457565b604080516001600160a01b03909316835260208301919091520161013b565b61012f6101bc366004610f53565b6104c5565b6101d46101cf366004610f53565b6104dc565b60405190815260200161013b565b6101f56101f0366004610f53565b6104f3565b6040516001600160a01b03909116815260200161013b565b61022061021b366004610f53565b61050a565b60405161013b9190611050565b61022061023b366004610f53565b610522565b61025361024e366004610f53565b61053a565b6040805193845260208401929092529082015260600161013b565b61028161027c366004610f53565b61056d565b6040805192835260208301919091520161013b565b6102206102a4366004610f53565b6105d1565b6102206102b7366004610f53565b610606565b6101d46102ca366004610f53565b610670565b6101d46102dd366004610f53565b61067f565b6101d46102f0366004610f53565b610696565b610308610303366004610f53565b6106ac565b005b6101d4610318366004610f53565b6106bc565b61033061032b366004610f53565b6106d3565b604080519b8c5260208c019a909a52988a01979097526060890195909552608088019390935260a087019190915260c086015260e08501526101008401526101208301526101408201526101600161013b565b6101d4610391366004610f53565b610867565b6101d46103a4366004610f53565b61087e565b6000806103b58361089b565b90506103c0816108c1565b9392505050565b6000806000806103de6103d98661089b565b610903565b9050610403816000815181106103f6576103f66111d1565b6020026020010151610a0c565b61042682600181518110610419576104196111d1565b60200260200101516108c1565b6104498360028151811061043c5761043c6111d1565b6020026020010151610a2c565b935093509350509193909250565b60008060006104686103d98561089b565b905061048d81600081518110610480576104806111d1565b6020026020010151610903565b90506104a5816000815181106103f6576103f66111d1565b6104bb8260018151811061043c5761043c6111d1565b9250925050915091565b6000806104d18361089b565b90506103c081610a79565b6000806104e88361089b565b90506103c081610aa8565b6000806104ff8361089b565b90506103c081610a0c565b606060006105178361089b565b90506103c081610ad6565b6060600061052f8361089b565b90506103c081610b55565b6000806000806105498561089b565b905060008061055783610bd2565b6020949094015190989397509550919350505050565b600080600061057e6103d98561089b565b905061059681600081518110610480576104806111d1565b90506105bb816000815181106105ae576105ae6111d1565b6020026020010151610c19565b6104bb826001815181106105ae576105ae6111d1565b606060006105e16103d98461089b565b90506103c0816000815181106105f9576105f96111d1565b6020026020010151610ad6565b6060600061061b6106168461089b565b610c31565b9050600061062b61061683610c82565b9050600061064061063b83610c82565b610b55565b905061064b83610cd3565b1561065557600080fd5b61065e82610cd3565b1561066857600080fd5b949350505050565b6000602082016103c081610cf7565b60008061068b8361089b565b90506103c081610a2c565b6000806106a28361089b565b90506103c0815190565b6106b86106168261089b565b5050565b6000806106cb6103d98461089b565b519392505050565b6000806000806000806000806000806000806106f16106168e61089b565b905060005b6106ff82610cd3565b1561085657806107215761071a61071583610c82565b610a2c565b9c50610844565b806001141561073d5761073661071583610c82565b9b50610844565b80600314156107595761075261071583610c82565b9a50610844565b80600414156107755761076e61071583610c82565b9950610844565b80600514156107915761078a61071583610c82565b9850610844565b80600714156107ad576107a661071583610c82565b9750610844565b80600814156107c9576107c261071583610c82565b9650610844565b80600914156107e5576107de61071583610c82565b9550610844565b80600a1415610801576107fa61071583610c82565b9450610844565b80600b141561081d5761081661071583610c82565b9350610844565b80600e14156108395761083261071583610c82565b9250610844565b61084282610c82565b505b8061084e816111a0565b9150506106f6565b505091939597999b90929496989a50565b6000806108738361089b565b90506103c081610c19565b60008061088a8361089b565b6020810151815190209091506103c0565b6108a3610f19565b50604080518082019091528151815260209182019181019190915290565b80516000906001146108d257600080fd5b6020820151805160001a908115806108ea5750608082145b156108f9575060009392505050565b5060019392505050565b606061090e82610a79565b61091757600080fd5b600061092283610d9b565b90506000816001600160401b0381111561093e5761093e6111e7565b60405190808252806020026020018201604052801561097757816020015b610964610f19565b81526020019060019003908161095c5790505b50905060006109898560200151610e1e565b85602001516109989190611063565b90506000805b84811015610a01576109af83610cf7565b91506040518060400160405280838152602001848152508482815181106109d8576109d86111d1565b60209081029190910101526109ed8284611063565b9250806109f9816111a0565b91505061099e565b509195945050505050565b8051600090601514610a1d57600080fd5b610a2682610a2c565b92915050565b805160009015801590610a4157508151602110155b610a4a57600080fd5b600080610a5684610bd2565b8151919350915060208210156106685760208290036101000a9004949350505050565b8051600090610a8a57506000919050565b6020820151805160001a9060c08210156108f9575060009392505050565b8051600090602114610ab957600080fd5b60008083602001516001610acd9190611063565b51949350505050565b6060600082600001516001600160401b03811115610af657610af66111e7565b6040519080825280601f01601f191660200182016040528015610b20576020820181803683370190505b509050805160001415610b335792915050565b6000816020019050610b4e8460200151828660000151610e99565b5092915050565b8051606090610b6357600080fd5b600080610b6f84610bd2565b915091506000816001600160401b03811115610b8d57610b8d6111e7565b6040519080825280601f01601f191660200182016040528015610bb7576020820181803683370190505b50905060208101610bc9848285610e99565b50949350505050565b6000806000610be48460200151610e1e565b90506000818560200151610bf89190611063565b90506000828660000151610c0c9190611166565b9196919550909350505050565b6000806000610c2784610bd2565b9020949350505050565b610c39610f33565b610c4282610a79565b610c4b57600080fd5b6000610c5a8360200151610e1e565b8360200151610c699190611063565b6040805180820190915293845260208401525090919050565b610c8a610f19565b610c9382610cd3565b610c9c57600080fd5b60208201516000610cac82610cf7565b9050610cb88183611063565b60209485015260408051808201909152908152928301525090565b80518051602082015160009291610ce991611063565b836020015110915050919050565b80516000908190811a6080811015610d125760019150610b4e565b60b8811015610d3857610d26608082611166565b610d31906001611063565b9150610b4e565b60c0811015610d655760b78103600185019450806020036101000a85510460018201810193505050610b4e565b60f8811015610d7957610d2660c082611166565b60019390930151602084900360f7016101000a900490920160f5190192915050565b8051600090610dac57506000919050565b600080610dbc8460200151610e1e565b8460200151610dcb9190611063565b9050600084600001518560200151610de39190611063565b90505b80821015610e1557610df782610cf7565b610e019083611063565b915082610e0d816111a0565b935050610de6565b50909392505050565b8051600090811a6080811015610e375750600092915050565b60b8811080610e52575060c08110801590610e52575060f881105b15610e605750600192915050565b60c0811015610e8d57610e75600160b861117d565b610e829060ff1682611166565b6103c0906001611063565b610e75600160f861117d565b80610ea357505050565b60208110610edb5782518252610eba602084611063565b9250610ec7602083611063565b9150610ed4602082611166565b9050610ea3565b8015610f145760006001610ef0836020611166565b610efc906101006110be565b610f069190611166565b845184518216911916178352505b505050565b604051806040016040528060008152602001600081525090565b6040518060400160405280610f46610f19565b8152602001600081525090565b600060208284031215610f6557600080fd5b81356001600160401b0380821115610f7c57600080fd5b818401915084601f830112610f9057600080fd5b813581811115610fa257610fa26111e7565b604051601f8201601f19908116603f01168101908382118183101715610fca57610fca6111e7565b81604052828152876020848701011115610fe357600080fd5b826020860160208301376000928101602001929092525095945050505050565b6000815180845260005b818110156110295760208185018101518683018201520161100d565b8181111561103b576000602083870101525b50601f01601f19169290920160200192915050565b6020815260006103c06020830184611003565b60008219821115611076576110766111bb565b500190565b600181815b808511156110b657816000190482111561109c5761109c6111bb565b808516156110a957918102915b93841c9390800290611080565b509250929050565b60006103c083836000826110d457506001610a26565b816110e157506000610a26565b81600181146110f757600281146111015761111d565b6001915050610a26565b60ff841115611112576111126111bb565b50506001821b610a26565b5060208310610133831016604e8410600b8410161715611140575081810a610a26565b61114a838361107b565b806000190482111561115e5761115e6111bb565b029392505050565b600082821015611178576111786111bb565b500390565b600060ff821660ff841680821015611197576111976111bb565b90039392505050565b60006000198214156111b4576111b46111bb565b5060010190565b634e487b7160e01b600052601160045260246000fd5b634e487b7160e01b600052603260045260246000fd5b634e487b7160e01b600052604160045260246000fdfea2646970667358221220fa2526a0aa32b126ae2ab467d9807419645fe0597672defe9ece6e0499d1725764736f6c63430008070033",
  "linkReferences": {},
  "deployedLinkReferences": {}
}